{"abi":[{"inputs":[],"stateMutability":"nonpayable","type":"constructor"},{"inputs":[{"internalType":"address","name":"_newOwner","type":"address"}],"name":"addOwner","outputs":[],"stateMutability":"nonpayable","type":"function"},{"inputs":[{"internalType":"uint256","name":"_requestIndex","type":"uint256"}],"name":"approve","outputs":[],"stateMutability":"nonpayable","type":"function"},{"inputs":[{"internalType":"address","name":"","type":"address"}],"name":"isOwner","outputs":[{"internalType":"bool","name":"","type":"bool"}],"stateMutability":"view","type":"function"},{"inputs":[],"name":"owner","outputs":[{"internalType":"address","name":"","type":"address"}],"stateMutability":"view","type":"function"},{"inputs":[{"internalType":"uint256","name":"","type":"uint256"}],"name":"owners","outputs":[{"internalType":"address","name":"","type":"address"}],"stateMutability":"view","type":"function"},{"inputs":[{"internalType":"uint256","name":"_index","type":"uint256"}],"name":"removeOwner","outputs":[],"stateMutability":"nonpayable","type":"function"},{"inputs":[{"internalType":"address","name":"_newOwner","type":"address"}],"name":"transferOwnership","outputs":[],"stateMutability":"nonpayable","type":"function"},{"inputs":[{"internalType":"uint256","name":"_requestIndex","type":"uint256"}],"name":"withdraw","outputs":[],"stateMutability":"nonpayable","type":"function"},{"inputs":[{"internalType":"uint256","name":"_amount","type":"uint256"}],"name":"withdrawRequest","outputs":[],"stateMutability":"nonpayable","type":"function"}],"devdoc":{"kind":"dev","methods":{},"version":1},"evm":{"assembly":"    /* \"SharedWallet.sol\":57:3124  contract SharedWallet {... */\n  mstore(0x40, 0x80)\n    /* \"SharedWallet.sol\":360:409  constructor() {... */\n  callvalue\n  dup1\n  iszero\n  tag_1\n  jumpi\n  0x00\n  dup1\n  revert\ntag_1:\n  pop\n    /* \"SharedWallet.sol\":392:402  msg.sender */\n  caller\n    /* \"SharedWallet.sol\":384:389  owner */\n  0x00\n  dup1\n    /* \"SharedWallet.sol\":384:402  owner = msg.sender */\n  0x0100\n  exp\n  dup2\n  sload\n  dup2\n  0xffffffffffffffffffffffffffffffffffffffff\n  mul\n  not\n  and\n  swap1\n  dup4\n  0xffffffffffffffffffffffffffffffffffffffff\n  and\n  mul\n  or\n  swap1\n  sstore\n  pop\n    /* \"SharedWallet.sol\":57:3124  contract SharedWallet {... */\n  dataSize(sub_0)\n  dup1\n  dataOffset(sub_0)\n  0x00\n  codecopy\n  0x00\n  return\nstop\n\nsub_0: assembly {\n        /* \"SharedWallet.sol\":57:3124  contract SharedWallet {... */\n      mstore(0x40, 0x80)\n      callvalue\n      dup1\n      iszero\n      tag_1\n      jumpi\n      0x00\n      dup1\n      revert\n    tag_1:\n      pop\n      jumpi(tag_2, lt(calldatasize, 0x04))\n      shr(0xe0, calldataload(0x00))\n      dup1\n      0x7065cb48\n      gt\n      tag_12\n      jumpi\n      dup1\n      0x7065cb48\n      eq\n      tag_7\n      jumpi\n      dup1\n      0x74899a7e\n      eq\n      tag_8\n      jumpi\n      dup1\n      0x8da5cb5b\n      eq\n      tag_9\n      jumpi\n      dup1\n      0xb759f954\n      eq\n      tag_10\n      jumpi\n      dup1\n      0xf2fde38b\n      eq\n      tag_11\n      jumpi\n      jump(tag_2)\n    tag_12:\n      dup1\n      0x025e7c27\n      eq\n      tag_3\n      jumpi\n      dup1\n      0x2e1a7d4d\n      eq\n      tag_4\n      jumpi\n      dup1\n      0x2f54bf6e\n      eq\n      tag_5\n      jumpi\n      dup1\n      0x6b919488\n      eq\n      tag_6\n      jumpi\n    tag_2:\n      0x00\n      dup1\n      revert\n        /* \"SharedWallet.sol\":111:134  address[] public owners */\n    tag_3:\n      tag_13\n      0x04\n      dup1\n      calldatasize\n      sub\n      dup2\n      add\n      swap1\n      tag_14\n      swap2\n      swap1\n      tag_15\n      jump\t// in\n    tag_14:\n      tag_16\n      jump\t// in\n    tag_13:\n      mload(0x40)\n      tag_17\n      swap2\n      swap1\n      tag_18\n      jump\t// in\n    tag_17:\n      mload(0x40)\n      dup1\n      swap2\n      sub\n      swap1\n      return\n        /* \"SharedWallet.sol\":2586:3122  function withdraw(uint _requestIndex) external {... */\n    tag_4:\n      tag_19\n      0x04\n      dup1\n      calldatasize\n      sub\n      dup2\n      add\n      swap1\n      tag_20\n      swap2\n      swap1\n      tag_15\n      jump\t// in\n    tag_20:\n      tag_21\n      jump\t// in\n    tag_19:\n      stop\n        /* \"SharedWallet.sol\":140:179  mapping(address => bool) public isOwner */\n    tag_5:\n      tag_22\n      0x04\n      dup1\n      calldatasize\n      sub\n      dup2\n      add\n      swap1\n      tag_23\n      swap2\n      swap1\n      tag_24\n      jump\t// in\n    tag_23:\n      tag_25\n      jump\t// in\n    tag_22:\n      mload(0x40)\n      tag_26\n      swap2\n      swap1\n      tag_27\n      jump\t// in\n    tag_26:\n      mload(0x40)\n      dup1\n      swap2\n      sub\n      swap1\n      return\n        /* \"SharedWallet.sol\":1242:1601  function removeOwner(uint _index) external onlyOwner {... */\n    tag_6:\n      tag_28\n      0x04\n      dup1\n      calldatasize\n      sub\n      dup2\n      add\n      swap1\n      tag_29\n      swap2\n      swap1\n      tag_15\n      jump\t// in\n    tag_29:\n      tag_30\n      jump\t// in\n    tag_28:\n      stop\n        /* \"SharedWallet.sol\":510:970  function addOwner(address _newOwner) external onlyOwner {... */\n    tag_7:\n      tag_31\n      0x04\n      dup1\n      calldatasize\n      sub\n      dup2\n      add\n      swap1\n      tag_32\n      swap2\n      swap1\n      tag_24\n      jump\t// in\n    tag_32:\n      tag_33\n      jump\t// in\n    tag_31:\n      stop\n        /* \"SharedWallet.sol\":1607:2004  function withdrawRequest(uint _amount) external {... */\n    tag_8:\n      tag_34\n      0x04\n      dup1\n      calldatasize\n      sub\n      dup2\n      add\n      swap1\n      tag_35\n      swap2\n      swap1\n      tag_15\n      jump\t// in\n    tag_35:\n      tag_36\n      jump\t// in\n    tag_34:\n      stop\n        /* \"SharedWallet.sol\":85:105  address public owner */\n    tag_9:\n      tag_37\n      tag_38\n      jump\t// in\n    tag_37:\n      mload(0x40)\n      tag_39\n      swap2\n      swap1\n      tag_18\n      jump\t// in\n    tag_39:\n      mload(0x40)\n      dup1\n      swap2\n      sub\n      swap1\n      return\n        /* \"SharedWallet.sol\":2010:2580  function approve(uint _requestIndex) external {... */\n    tag_10:\n      tag_40\n      0x04\n      dup1\n      calldatasize\n      sub\n      dup2\n      add\n      swap1\n      tag_41\n      swap2\n      swap1\n      tag_15\n      jump\t// in\n    tag_41:\n      tag_42\n      jump\t// in\n    tag_40:\n      stop\n        /* \"SharedWallet.sol\":976:1236  function transferOwnership(address _newOwner) external onlyOwner {... */\n    tag_11:\n      tag_43\n      0x04\n      dup1\n      calldatasize\n      sub\n      dup2\n      add\n      swap1\n      tag_44\n      swap2\n      swap1\n      tag_24\n      jump\t// in\n    tag_44:\n      tag_45\n      jump\t// in\n    tag_43:\n      stop\n        /* \"SharedWallet.sol\":111:134  address[] public owners */\n    tag_16:\n      0x01\n      dup2\n      dup2\n      sload\n      dup2\n      lt\n      tag_46\n      jumpi\n      0x00\n      dup1\n      revert\n    tag_46:\n      swap1\n      0x00\n      mstore\n      keccak256(0x00, 0x20)\n      add\n      0x00\n      swap2\n      pop\n      sload\n      swap1\n      0x0100\n      exp\n      swap1\n      div\n      0xffffffffffffffffffffffffffffffffffffffff\n      and\n      dup2\n      jump\t// out\n        /* \"SharedWallet.sol\":2586:3122  function withdraw(uint _requestIndex) external {... */\n    tag_21:\n        /* \"SharedWallet.sol\":2667:2675  requests */\n      0x04\n        /* \"SharedWallet.sol\":2667:2682  requests.length */\n      dup1\n      sload\n      swap1\n      pop\n        /* \"SharedWallet.sol\":2651:2664  _requestIndex */\n      dup2\n        /* \"SharedWallet.sol\":2651:2682  _requestIndex < requests.length */\n      lt\n        /* \"SharedWallet.sol\":2643:2706  require(_requestIndex < requests.length, 'index out of bounds') */\n      tag_49\n      jumpi\n      mload(0x40)\n      0x08c379a000000000000000000000000000000000000000000000000000000000\n      dup2\n      mstore\n      0x04\n      add\n      tag_50\n      swap1\n      tag_51\n      jump\t// in\n    tag_50:\n      mload(0x40)\n      dup1\n      swap2\n      sub\n      swap1\n      revert\n    tag_49:\n        /* \"SharedWallet.sol\":2724:2732  requests */\n      0x04\n        /* \"SharedWallet.sol\":2733:2746  _requestIndex */\n      dup2\n        /* \"SharedWallet.sol\":2724:2747  requests[_requestIndex] */\n      dup2\n      sload\n      dup2\n      lt\n      tag_52\n      jumpi\n      tag_53\n      tag_54\n      jump\t// in\n    tag_53:\n    tag_52:\n      swap1\n      0x00\n      mstore\n      keccak256(0x00, 0x20)\n      swap1\n      0x03\n      mul\n      add\n        /* \"SharedWallet.sol\":2724:2756  requests[_requestIndex].approved */\n      0x02\n      add\n        /* \"SharedWallet.sol\":2724:2768  requests[_requestIndex].approved[msg.sender] */\n      0x00\n        /* \"SharedWallet.sol\":2757:2767  msg.sender */\n      caller\n        /* \"SharedWallet.sol\":2724:2768  requests[_requestIndex].approved[msg.sender] */\n      0xffffffffffffffffffffffffffffffffffffffff\n      and\n      0xffffffffffffffffffffffffffffffffffffffff\n      and\n      dup2\n      mstore\n      0x20\n      add\n      swap1\n      dup2\n      mstore\n      0x20\n      add\n      0x00\n      keccak256\n      0x00\n      swap1\n      sload\n      swap1\n      0x0100\n      exp\n      swap1\n      div\n      0xff\n      and\n        /* \"SharedWallet.sol\":2716:2806  require(requests[_requestIndex].approved[msg.sender], 'only approved owners can withdraw') */\n      tag_56\n      jumpi\n      mload(0x40)\n      0x08c379a000000000000000000000000000000000000000000000000000000000\n      dup2\n      mstore\n      0x04\n      add\n      tag_57\n      swap1\n      tag_58\n      jump\t// in\n    tag_57:\n      mload(0x40)\n      dup1\n      swap2\n      sub\n      swap1\n      revert\n    tag_56:\n        /* \"SharedWallet.sol\":2869:2883  numberOfOwners */\n      sload(0x03)\n        /* \"SharedWallet.sol\":2824:2832  requests */\n      0x04\n        /* \"SharedWallet.sol\":2833:2846  _requestIndex */\n      dup3\n        /* \"SharedWallet.sol\":2824:2847  requests[_requestIndex] */\n      dup2\n      sload\n      dup2\n      lt\n      tag_59\n      jumpi\n      tag_60\n      tag_54\n      jump\t// in\n    tag_60:\n    tag_59:\n      swap1\n      0x00\n      mstore\n      keccak256(0x00, 0x20)\n      swap1\n      0x03\n      mul\n      add\n        /* \"SharedWallet.sol\":2824:2865  requests[_requestIndex].numberOfApprovals */\n      0x01\n      add\n      sload\n        /* \"SharedWallet.sol\":2824:2883  requests[_requestIndex].numberOfApprovals == numberOfOwners */\n      eq\n        /* \"SharedWallet.sol\":2816:2916  require(requests[_requestIndex].numberOfApprovals == numberOfOwners, 'not all owners have approved') */\n      tag_62\n      jumpi\n      mload(0x40)\n      0x08c379a000000000000000000000000000000000000000000000000000000000\n      dup2\n      mstore\n      0x04\n      add\n      tag_63\n      swap1\n      tag_64\n      jump\t// in\n    tag_63:\n      mload(0x40)\n      dup1\n      swap2\n      sub\n      swap1\n      revert\n    tag_62:\n        /* \"SharedWallet.sol\":2953:2964  uint amount */\n      0x00\n        /* \"SharedWallet.sol\":2967:2975  requests */\n      0x04\n        /* \"SharedWallet.sol\":2976:2989  _requestIndex */\n      dup3\n        /* \"SharedWallet.sol\":2967:2990  requests[_requestIndex] */\n      dup2\n      sload\n      dup2\n      lt\n      tag_65\n      jumpi\n      tag_66\n      tag_54\n      jump\t// in\n    tag_66:\n    tag_65:\n      swap1\n      0x00\n      mstore\n      keccak256(0x00, 0x20)\n      swap1\n      0x03\n      mul\n      add\n        /* \"SharedWallet.sol\":2967:2997  requests[_requestIndex].amount */\n      0x00\n      add\n      sload\n        /* \"SharedWallet.sol\":2953:2997  uint amount = requests[_requestIndex].amount */\n      swap1\n      pop\n        /* \"SharedWallet.sol\":3014:3022  requests */\n      0x04\n        /* \"SharedWallet.sol\":3023:3036  _requestIndex */\n      dup3\n        /* \"SharedWallet.sol\":3014:3037  requests[_requestIndex] */\n      dup2\n      sload\n      dup2\n      lt\n      tag_68\n      jumpi\n      tag_69\n      tag_54\n      jump\t// in\n    tag_69:\n    tag_68:\n      swap1\n      0x00\n      mstore\n      keccak256(0x00, 0x20)\n      swap1\n      0x03\n      mul\n      add\n      0x00\n        /* \"SharedWallet.sol\":3007:3037  delete requests[_requestIndex] */\n      dup1\n      dup3\n      add\n      0x00\n      swap1\n      sstore\n      0x01\n      dup3\n      add\n      0x00\n      swap1\n      sstore\n      pop\n      pop\n        /* \"SharedWallet.sol\":3087:3097  msg.sender */\n      caller\n        /* \"SharedWallet.sol\":3079:3107  payable(msg.sender).transfer */\n      0xffffffffffffffffffffffffffffffffffffffff\n      and\n        /* \"SharedWallet.sol\":3079:3115  payable(msg.sender).transfer(amount) */\n      0x08fc\n        /* \"SharedWallet.sol\":3108:3114  amount */\n      dup3\n        /* \"SharedWallet.sol\":3079:3115  payable(msg.sender).transfer(amount) */\n      swap1\n      dup2\n      iszero\n      mul\n      swap1\n      mload(0x40)\n      0x00\n      mload(0x40)\n      dup1\n      dup4\n      sub\n      dup2\n      dup6\n      dup9\n      dup9\n      call\n      swap4\n      pop\n      pop\n      pop\n      pop\n      iszero\n      dup1\n      iszero\n      tag_72\n      jumpi\n      returndatasize\n      0x00\n      dup1\n      returndatacopy\n      revert(0x00, returndatasize)\n    tag_72:\n      pop\n        /* \"SharedWallet.sol\":2633:3122  {... */\n      pop\n        /* \"SharedWallet.sol\":2586:3122  function withdraw(uint _requestIndex) external {... */\n      pop\n      jump\t// out\n        /* \"SharedWallet.sol\":140:179  mapping(address => bool) public isOwner */\n    tag_25:\n      mstore(0x20, 0x02)\n      dup1\n      0x00\n      mstore\n      keccak256(0x00, 0x40)\n      0x00\n      swap2\n      pop\n      sload\n      swap1\n      0x0100\n      exp\n      swap1\n      div\n      0xff\n      and\n      dup2\n      jump\t// out\n        /* \"SharedWallet.sol\":1242:1601  function removeOwner(uint _index) external onlyOwner {... */\n    tag_30:\n        /* \"SharedWallet.sol\":466:471  owner */\n      0x00\n      dup1\n      sload\n      swap1\n      0x0100\n      exp\n      swap1\n      div\n      0xffffffffffffffffffffffffffffffffffffffff\n      and\n        /* \"SharedWallet.sol\":452:471  msg.sender == owner */\n      0xffffffffffffffffffffffffffffffffffffffff\n      and\n        /* \"SharedWallet.sol\":452:462  msg.sender */\n      caller\n        /* \"SharedWallet.sol\":452:471  msg.sender == owner */\n      0xffffffffffffffffffffffffffffffffffffffff\n      and\n      eq\n        /* \"SharedWallet.sol\":444:486  require(msg.sender == owner, 'only owner') */\n      tag_74\n      jumpi\n      mload(0x40)\n      0x08c379a000000000000000000000000000000000000000000000000000000000\n      dup2\n      mstore\n      0x04\n      add\n      tag_75\n      swap1\n      tag_76\n      jump\t// in\n    tag_75:\n      mload(0x40)\n      dup1\n      swap2\n      sub\n      swap1\n      revert\n    tag_74:\n        /* \"SharedWallet.sol\":1322:1328  owners */\n      0x01\n        /* \"SharedWallet.sol\":1322:1335  owners.length */\n      dup1\n      sload\n      swap1\n      pop\n        /* \"SharedWallet.sol\":1313:1319  _index */\n      dup2\n        /* \"SharedWallet.sol\":1313:1335  _index < owners.length */\n      lt\n        /* \"SharedWallet.sol\":1305:1359  require(_index < owners.length, 'index out of bounds') */\n      tag_78\n      jumpi\n      mload(0x40)\n      0x08c379a000000000000000000000000000000000000000000000000000000000\n      dup2\n      mstore\n      0x04\n      add\n      tag_79\n      swap1\n      tag_51\n      jump\t// in\n    tag_79:\n      mload(0x40)\n      dup1\n      swap2\n      sub\n      swap1\n      revert\n    tag_78:\n        /* \"SharedWallet.sol\":1421:1427  owners */\n      0x01\n        /* \"SharedWallet.sol\":1444:1445  1 */\n      dup1\n        /* \"SharedWallet.sol\":1428:1434  owners */\n      dup1\n        /* \"SharedWallet.sol\":1428:1441  owners.length */\n      dup1\n      sload\n      swap1\n      pop\n        /* \"SharedWallet.sol\":1428:1445  owners.length - 1 */\n      tag_80\n      swap2\n      swap1\n      tag_81\n      jump\t// in\n    tag_80:\n        /* \"SharedWallet.sol\":1421:1446  owners[owners.length - 1] */\n      dup2\n      sload\n      dup2\n      lt\n      tag_82\n      jumpi\n      tag_83\n      tag_54\n      jump\t// in\n    tag_83:\n    tag_82:\n      swap1\n      0x00\n      mstore\n      keccak256(0x00, 0x20)\n      add\n      0x00\n      swap1\n      sload\n      swap1\n      0x0100\n      exp\n      swap1\n      div\n      0xffffffffffffffffffffffffffffffffffffffff\n      and\n        /* \"SharedWallet.sol\":1404:1410  owners */\n      0x01\n        /* \"SharedWallet.sol\":1411:1417  _index */\n      dup3\n        /* \"SharedWallet.sol\":1404:1418  owners[_index] */\n      dup2\n      sload\n      dup2\n      lt\n      tag_85\n      jumpi\n      tag_86\n      tag_54\n      jump\t// in\n    tag_86:\n    tag_85:\n      swap1\n      0x00\n      mstore\n      keccak256(0x00, 0x20)\n      add\n      0x00\n        /* \"SharedWallet.sol\":1404:1446  owners[_index] = owners[owners.length - 1] */\n      0x0100\n      exp\n      dup2\n      sload\n      dup2\n      0xffffffffffffffffffffffffffffffffffffffff\n      mul\n      not\n      and\n      swap1\n      dup4\n      0xffffffffffffffffffffffffffffffffffffffff\n      and\n      mul\n      or\n      swap1\n      sstore\n      pop\n        /* \"SharedWallet.sol\":1463:1469  owners */\n      0x01\n        /* \"SharedWallet.sol\":1486:1487  1 */\n      dup1\n        /* \"SharedWallet.sol\":1470:1476  owners */\n      dup1\n        /* \"SharedWallet.sol\":1470:1483  owners.length */\n      dup1\n      sload\n      swap1\n      pop\n        /* \"SharedWallet.sol\":1470:1487  owners.length - 1 */\n      tag_88\n      swap2\n      swap1\n      tag_81\n      jump\t// in\n    tag_88:\n        /* \"SharedWallet.sol\":1463:1488  owners[owners.length - 1] */\n      dup2\n      sload\n      dup2\n      lt\n      tag_89\n      jumpi\n      tag_90\n      tag_54\n      jump\t// in\n    tag_90:\n    tag_89:\n      swap1\n      0x00\n      mstore\n      keccak256(0x00, 0x20)\n      add\n      0x00\n        /* \"SharedWallet.sol\":1456:1488  delete owners[owners.length - 1] */\n      0x0100\n      exp\n      dup2\n      sload\n      swap1\n      0xffffffffffffffffffffffffffffffffffffffff\n      mul\n      not\n      and\n      swap1\n      sstore\n        /* \"SharedWallet.sol\":1524:1529  false */\n      0x00\n        /* \"SharedWallet.sol\":1498:1505  isOwner */\n      0x02\n        /* \"SharedWallet.sol\":1498:1521  isOwner[owners[_index]] */\n      0x00\n        /* \"SharedWallet.sol\":1506:1512  owners */\n      0x01\n        /* \"SharedWallet.sol\":1513:1519  _index */\n      dup5\n        /* \"SharedWallet.sol\":1506:1520  owners[_index] */\n      dup2\n      sload\n      dup2\n      lt\n      tag_92\n      jumpi\n      tag_93\n      tag_54\n      jump\t// in\n    tag_93:\n    tag_92:\n      swap1\n      0x00\n      mstore\n      keccak256(0x00, 0x20)\n      add\n      0x00\n      swap1\n      sload\n      swap1\n      0x0100\n      exp\n      swap1\n      div\n      0xffffffffffffffffffffffffffffffffffffffff\n      and\n        /* \"SharedWallet.sol\":1498:1521  isOwner[owners[_index]] */\n      0xffffffffffffffffffffffffffffffffffffffff\n      and\n      0xffffffffffffffffffffffffffffffffffffffff\n      and\n      dup2\n      mstore\n      0x20\n      add\n      swap1\n      dup2\n      mstore\n      0x20\n      add\n      0x00\n      keccak256\n      0x00\n        /* \"SharedWallet.sol\":1498:1529  isOwner[owners[_index]] = false */\n      0x0100\n      exp\n      dup2\n      sload\n      dup2\n      0xff\n      mul\n      not\n      and\n      swap1\n      dup4\n      iszero\n      iszero\n      mul\n      or\n      swap1\n      sstore\n      pop\n        /* \"SharedWallet.sol\":1578:1592  numberOfOwners */\n      0x03\n      0x00\n        /* \"SharedWallet.sol\":1578:1594  numberOfOwners-- */\n      dup2\n      sload\n      dup1\n      swap3\n      swap2\n      swap1\n      tag_95\n      swap1\n      tag_96\n      jump\t// in\n    tag_95:\n      swap2\n      swap1\n      pop\n      sstore\n      pop\n        /* \"SharedWallet.sol\":1242:1601  function removeOwner(uint _index) external onlyOwner {... */\n      pop\n      jump\t// out\n        /* \"SharedWallet.sol\":510:970  function addOwner(address _newOwner) external onlyOwner {... */\n    tag_33:\n        /* \"SharedWallet.sol\":466:471  owner */\n      0x00\n      dup1\n      sload\n      swap1\n      0x0100\n      exp\n      swap1\n      div\n      0xffffffffffffffffffffffffffffffffffffffff\n      and\n        /* \"SharedWallet.sol\":452:471  msg.sender == owner */\n      0xffffffffffffffffffffffffffffffffffffffff\n      and\n        /* \"SharedWallet.sol\":452:462  msg.sender */\n      caller\n        /* \"SharedWallet.sol\":452:471  msg.sender == owner */\n      0xffffffffffffffffffffffffffffffffffffffff\n      and\n      eq\n        /* \"SharedWallet.sol\":444:486  require(msg.sender == owner, 'only owner') */\n      tag_98\n      jumpi\n      mload(0x40)\n      0x08c379a000000000000000000000000000000000000000000000000000000000\n      dup2\n      mstore\n      0x04\n      add\n      tag_99\n      swap1\n      tag_76\n      jump\t// in\n    tag_99:\n      mload(0x40)\n      dup1\n      swap2\n      sub\n      swap1\n      revert\n    tag_98:\n        /* \"SharedWallet.sol\":597:602  owner */\n      0x00\n      dup1\n      sload\n      swap1\n      0x0100\n      exp\n      swap1\n      div\n      0xffffffffffffffffffffffffffffffffffffffff\n      and\n        /* \"SharedWallet.sol\":584:602  _newOwner != owner */\n      0xffffffffffffffffffffffffffffffffffffffff\n      and\n        /* \"SharedWallet.sol\":584:593  _newOwner */\n      dup2\n        /* \"SharedWallet.sol\":584:602  _newOwner != owner */\n      0xffffffffffffffffffffffffffffffffffffffff\n      and\n      eq\n      iszero\n        /* \"SharedWallet.sol\":576:640  require(_newOwner != owner, 'cannot add contract owner to list') */\n      tag_101\n      jumpi\n      mload(0x40)\n      0x08c379a000000000000000000000000000000000000000000000000000000000\n      dup2\n      mstore\n      0x04\n      add\n      tag_102\n      swap1\n      tag_103\n      jump\t// in\n    tag_102:\n      mload(0x40)\n      dup1\n      swap2\n      sub\n      swap1\n      revert\n    tag_101:\n        /* \"SharedWallet.sol\":679:680  0 */\n      0x00\n        /* \"SharedWallet.sol\":658:681  _newOwner != address(0) */\n      0xffffffffffffffffffffffffffffffffffffffff\n      and\n        /* \"SharedWallet.sol\":658:667  _newOwner */\n      dup2\n        /* \"SharedWallet.sol\":658:681  _newOwner != address(0) */\n      0xffffffffffffffffffffffffffffffffffffffff\n      and\n      eq\n      iszero\n        /* \"SharedWallet.sol\":650:717  require(_newOwner != address(0), 'cannot add null address to list') */\n      tag_104\n      jumpi\n      mload(0x40)\n      0x08c379a000000000000000000000000000000000000000000000000000000000\n      dup2\n      mstore\n      0x04\n      add\n      tag_105\n      swap1\n      tag_106\n      jump\t// in\n    tag_105:\n      mload(0x40)\n      dup1\n      swap2\n      sub\n      swap1\n      revert\n    tag_104:\n        /* \"SharedWallet.sol\":736:743  isOwner */\n      0x02\n        /* \"SharedWallet.sol\":736:754  isOwner[_newOwner] */\n      0x00\n        /* \"SharedWallet.sol\":744:753  _newOwner */\n      dup3\n        /* \"SharedWallet.sol\":736:754  isOwner[_newOwner] */\n      0xffffffffffffffffffffffffffffffffffffffff\n      and\n      0xffffffffffffffffffffffffffffffffffffffff\n      and\n      dup2\n      mstore\n      0x20\n      add\n      swap1\n      dup2\n      mstore\n      0x20\n      add\n      0x00\n      keccak256\n      0x00\n      swap1\n      sload\n      swap1\n      0x0100\n      exp\n      swap1\n      div\n      0xff\n      and\n        /* \"SharedWallet.sol\":735:754  !isOwner[_newOwner] */\n      iszero\n        /* \"SharedWallet.sol\":727:789  require(!isOwner[_newOwner], 'address already exists in list') */\n      tag_107\n      jumpi\n      mload(0x40)\n      0x08c379a000000000000000000000000000000000000000000000000000000000\n      dup2\n      mstore\n      0x04\n      add\n      tag_108\n      swap1\n      tag_109\n      jump\t// in\n    tag_108:\n      mload(0x40)\n      dup1\n      swap2\n      sub\n      swap1\n      revert\n    tag_107:\n        /* \"SharedWallet.sol\":841:847  owners */\n      0x01\n        /* \"SharedWallet.sol\":853:862  _newOwner */\n      dup2\n        /* \"SharedWallet.sol\":841:863  owners.push(_newOwner) */\n      swap1\n      dup1\n      0x01\n      dup2\n      sload\n      add\n      dup1\n      dup3\n      sstore\n      dup1\n      swap2\n      pop\n      pop\n      0x01\n      swap1\n      sub\n      swap1\n      0x00\n      mstore\n      keccak256(0x00, 0x20)\n      add\n      0x00\n      swap1\n      swap2\n      swap1\n      swap2\n      swap1\n      swap2\n      0x0100\n      exp\n      dup2\n      sload\n      dup2\n      0xffffffffffffffffffffffffffffffffffffffff\n      mul\n      not\n      and\n      swap1\n      dup4\n      0xffffffffffffffffffffffffffffffffffffffff\n      and\n      mul\n      or\n      swap1\n      sstore\n      pop\n        /* \"SharedWallet.sol\":894:898  true */\n      0x01\n        /* \"SharedWallet.sol\":873:880  isOwner */\n      0x02\n        /* \"SharedWallet.sol\":873:891  isOwner[_newOwner] */\n      0x00\n        /* \"SharedWallet.sol\":881:890  _newOwner */\n      dup4\n        /* \"SharedWallet.sol\":873:891  isOwner[_newOwner] */\n      0xffffffffffffffffffffffffffffffffffffffff\n      and\n      0xffffffffffffffffffffffffffffffffffffffff\n      and\n      dup2\n      mstore\n      0x20\n      add\n      swap1\n      dup2\n      mstore\n      0x20\n      add\n      0x00\n      keccak256\n      0x00\n        /* \"SharedWallet.sol\":873:898  isOwner[_newOwner] = true */\n      0x0100\n      exp\n      dup2\n      sload\n      dup2\n      0xff\n      mul\n      not\n      and\n      swap1\n      dup4\n      iszero\n      iszero\n      mul\n      or\n      swap1\n      sstore\n      pop\n        /* \"SharedWallet.sol\":947:961  numberOfOwners */\n      0x03\n      0x00\n        /* \"SharedWallet.sol\":947:963  numberOfOwners++ */\n      dup2\n      sload\n      dup1\n      swap3\n      swap2\n      swap1\n      tag_111\n      swap1\n      tag_112\n      jump\t// in\n    tag_111:\n      swap2\n      swap1\n      pop\n      sstore\n      pop\n        /* \"SharedWallet.sol\":510:970  function addOwner(address _newOwner) external onlyOwner {... */\n      pop\n      jump\t// out\n        /* \"SharedWallet.sol\":1607:2004  function withdrawRequest(uint _amount) external {... */\n    tag_36:\n        /* \"SharedWallet.sol\":1683:1684  0 */\n      0x00\n        /* \"SharedWallet.sol\":1673:1680  _amount */\n      dup2\n        /* \"SharedWallet.sol\":1673:1684  _amount > 0 */\n      gt\n        /* \"SharedWallet.sol\":1665:1718  require(_amount > 0, 'amount must be greater than 0') */\n      tag_114\n      jumpi\n      mload(0x40)\n      0x08c379a000000000000000000000000000000000000000000000000000000000\n      dup2\n      mstore\n      0x04\n      add\n      tag_115\n      swap1\n      tag_116\n      jump\t// in\n    tag_115:\n      mload(0x40)\n      dup1\n      swap2\n      sub\n      swap1\n      revert\n    tag_114:\n        /* \"SharedWallet.sol\":1736:1743  isOwner */\n      0x02\n        /* \"SharedWallet.sol\":1736:1755  isOwner[msg.sender] */\n      0x00\n        /* \"SharedWallet.sol\":1744:1754  msg.sender */\n      caller\n        /* \"SharedWallet.sol\":1736:1755  isOwner[msg.sender] */\n      0xffffffffffffffffffffffffffffffffffffffff\n      and\n      0xffffffffffffffffffffffffffffffffffffffff\n      and\n      dup2\n      mstore\n      0x20\n      add\n      swap1\n      dup2\n      mstore\n      0x20\n      add\n      0x00\n      keccak256\n      0x00\n      swap1\n      sload\n      swap1\n      0x0100\n      exp\n      swap1\n      div\n      0xff\n      and\n        /* \"SharedWallet.sol\":1728:1783  require(isOwner[msg.sender], 'only owner can withdraw') */\n      tag_117\n      jumpi\n      mload(0x40)\n      0x08c379a000000000000000000000000000000000000000000000000000000000\n      dup2\n      mstore\n      0x04\n      add\n      tag_118\n      swap1\n      tag_119\n      jump\t// in\n    tag_118:\n      mload(0x40)\n      dup1\n      swap2\n      sub\n      swap1\n      revert\n    tag_117:\n        /* \"SharedWallet.sol\":1824:1847  Request storage request */\n      0x00\n        /* \"SharedWallet.sol\":1850:1858  requests */\n      0x04\n        /* \"SharedWallet.sol\":1877:1878  1 */\n      0x01\n        /* \"SharedWallet.sol\":1859:1867  requests */\n      0x04\n        /* \"SharedWallet.sol\":1859:1874  requests.length */\n      dup1\n      sload\n      swap1\n      pop\n        /* \"SharedWallet.sol\":1859:1878  requests.length + 1 */\n      tag_120\n      swap2\n      swap1\n      tag_121\n      jump\t// in\n    tag_120:\n        /* \"SharedWallet.sol\":1850:1879  requests[requests.length + 1] */\n      dup2\n      sload\n      dup2\n      lt\n      tag_122\n      jumpi\n      tag_123\n      tag_54\n      jump\t// in\n    tag_123:\n    tag_122:\n      swap1\n      0x00\n      mstore\n      keccak256(0x00, 0x20)\n      swap1\n      0x03\n      mul\n      add\n        /* \"SharedWallet.sol\":1824:1879  Request storage request = requests[requests.length + 1] */\n      swap1\n      pop\n        /* \"SharedWallet.sol\":1906:1913  _amount */\n      dup2\n        /* \"SharedWallet.sol\":1889:1896  request */\n      dup2\n        /* \"SharedWallet.sol\":1889:1903  request.amount */\n      0x00\n      add\n        /* \"SharedWallet.sol\":1889:1913  request.amount = _amount */\n      dup2\n      swap1\n      sstore\n      pop\n        /* \"SharedWallet.sol\":1951:1952  0 */\n      0x00\n        /* \"SharedWallet.sol\":1923:1930  request */\n      dup2\n        /* \"SharedWallet.sol\":1923:1948  request.numberOfApprovals */\n      0x01\n      add\n        /* \"SharedWallet.sol\":1923:1952  request.numberOfApprovals = 0 */\n      dup2\n      swap1\n      sstore\n      pop\n        /* \"SharedWallet.sol\":1993:1997  true */\n      0x01\n        /* \"SharedWallet.sol\":1962:1969  request */\n      dup2\n        /* \"SharedWallet.sol\":1962:1978  request.approved */\n      0x02\n      add\n        /* \"SharedWallet.sol\":1962:1990  request.approved[msg.sender] */\n      0x00\n        /* \"SharedWallet.sol\":1979:1989  msg.sender */\n      caller\n        /* \"SharedWallet.sol\":1962:1990  request.approved[msg.sender] */\n      0xffffffffffffffffffffffffffffffffffffffff\n      and\n      0xffffffffffffffffffffffffffffffffffffffff\n      and\n      dup2\n      mstore\n      0x20\n      add\n      swap1\n      dup2\n      mstore\n      0x20\n      add\n      0x00\n      keccak256\n      0x00\n        /* \"SharedWallet.sol\":1962:1997  request.approved[msg.sender] = true */\n      0x0100\n      exp\n      dup2\n      sload\n      dup2\n      0xff\n      mul\n      not\n      and\n      swap1\n      dup4\n      iszero\n      iszero\n      mul\n      or\n      swap1\n      sstore\n      pop\n        /* \"SharedWallet.sol\":1655:2004  {... */\n      pop\n        /* \"SharedWallet.sol\":1607:2004  function withdrawRequest(uint _amount) external {... */\n      pop\n      jump\t// out\n        /* \"SharedWallet.sol\":85:105  address public owner */\n    tag_38:\n      0x00\n      dup1\n      sload\n      swap1\n      0x0100\n      exp\n      swap1\n      div\n      0xffffffffffffffffffffffffffffffffffffffff\n      and\n      dup2\n      jump\t// out\n        /* \"SharedWallet.sol\":2010:2580  function approve(uint _requestIndex) external {... */\n    tag_42:\n        /* \"SharedWallet.sol\":2090:2098  requests */\n      0x04\n        /* \"SharedWallet.sol\":2090:2105  requests.length */\n      dup1\n      sload\n      swap1\n      pop\n        /* \"SharedWallet.sol\":2074:2087  _requestIndex */\n      dup2\n        /* \"SharedWallet.sol\":2074:2105  _requestIndex < requests.length */\n      lt\n        /* \"SharedWallet.sol\":2066:2129  require(_requestIndex < requests.length, 'index out of bounds') */\n      tag_126\n      jumpi\n      mload(0x40)\n      0x08c379a000000000000000000000000000000000000000000000000000000000\n      dup2\n      mstore\n      0x04\n      add\n      tag_127\n      swap1\n      tag_51\n      jump\t// in\n    tag_127:\n      mload(0x40)\n      dup1\n      swap2\n      sub\n      swap1\n      revert\n    tag_126:\n        /* \"SharedWallet.sol\":2191:2205  numberOfOwners */\n      sload(0x03)\n        /* \"SharedWallet.sol\":2147:2155  requests */\n      0x04\n        /* \"SharedWallet.sol\":2156:2169  _requestIndex */\n      dup3\n        /* \"SharedWallet.sol\":2147:2170  requests[_requestIndex] */\n      dup2\n      sload\n      dup2\n      lt\n      tag_128\n      jumpi\n      tag_129\n      tag_54\n      jump\t// in\n    tag_129:\n    tag_128:\n      swap1\n      0x00\n      mstore\n      keccak256(0x00, 0x20)\n      swap1\n      0x03\n      mul\n      add\n        /* \"SharedWallet.sol\":2147:2188  requests[_requestIndex].numberOfApprovals */\n      0x01\n      add\n      sload\n        /* \"SharedWallet.sol\":2147:2205  requests[_requestIndex].numberOfApprovals < numberOfOwners */\n      lt\n        /* \"SharedWallet.sol\":2139:2243  require(requests[_requestIndex].numberOfApprovals < numberOfOwners, 'request has already been approved') */\n      tag_131\n      jumpi\n      mload(0x40)\n      0x08c379a000000000000000000000000000000000000000000000000000000000\n      dup2\n      mstore\n      0x04\n      add\n      tag_132\n      swap1\n      tag_133\n      jump\t// in\n    tag_132:\n      mload(0x40)\n      dup1\n      swap2\n      sub\n      swap1\n      revert\n    tag_131:\n        /* \"SharedWallet.sol\":2261:2268  isOwner */\n      0x02\n        /* \"SharedWallet.sol\":2261:2280  isOwner[msg.sender] */\n      0x00\n        /* \"SharedWallet.sol\":2269:2279  msg.sender */\n      caller\n        /* \"SharedWallet.sol\":2261:2280  isOwner[msg.sender] */\n      0xffffffffffffffffffffffffffffffffffffffff\n      and\n      0xffffffffffffffffffffffffffffffffffffffff\n      and\n      dup2\n      mstore\n      0x20\n      add\n      swap1\n      dup2\n      mstore\n      0x20\n      add\n      0x00\n      keccak256\n      0x00\n      swap1\n      sload\n      swap1\n      0x0100\n      exp\n      swap1\n      div\n      0xff\n      and\n        /* \"SharedWallet.sol\":2253:2307  require(isOwner[msg.sender], 'only owner can approve') */\n      tag_134\n      jumpi\n      mload(0x40)\n      0x08c379a000000000000000000000000000000000000000000000000000000000\n      dup2\n      mstore\n      0x04\n      add\n      tag_135\n      swap1\n      tag_136\n      jump\t// in\n    tag_135:\n      mload(0x40)\n      dup1\n      swap2\n      sub\n      swap1\n      revert\n    tag_134:\n        /* \"SharedWallet.sol\":2373:2378  false */\n      0x00\n        /* \"SharedWallet.sol\":2325:2378  requests[_requestIndex].approved[msg.sender] == false */\n      iszero\n      iszero\n        /* \"SharedWallet.sol\":2325:2333  requests */\n      0x04\n        /* \"SharedWallet.sol\":2334:2347  _requestIndex */\n      dup3\n        /* \"SharedWallet.sol\":2325:2348  requests[_requestIndex] */\n      dup2\n      sload\n      dup2\n      lt\n      tag_137\n      jumpi\n      tag_138\n      tag_54\n      jump\t// in\n    tag_138:\n    tag_137:\n      swap1\n      0x00\n      mstore\n      keccak256(0x00, 0x20)\n      swap1\n      0x03\n      mul\n      add\n        /* \"SharedWallet.sol\":2325:2357  requests[_requestIndex].approved */\n      0x02\n      add\n        /* \"SharedWallet.sol\":2325:2369  requests[_requestIndex].approved[msg.sender] */\n      0x00\n        /* \"SharedWallet.sol\":2358:2368  msg.sender */\n      caller\n        /* \"SharedWallet.sol\":2325:2369  requests[_requestIndex].approved[msg.sender] */\n      0xffffffffffffffffffffffffffffffffffffffff\n      and\n      0xffffffffffffffffffffffffffffffffffffffff\n      and\n      dup2\n      mstore\n      0x20\n      add\n      swap1\n      dup2\n      mstore\n      0x20\n      add\n      0x00\n      keccak256\n      0x00\n      swap1\n      sload\n      swap1\n      0x0100\n      exp\n      swap1\n      div\n      0xff\n      and\n        /* \"SharedWallet.sol\":2325:2378  requests[_requestIndex].approved[msg.sender] == false */\n      iszero\n      iszero\n      eq\n        /* \"SharedWallet.sol\":2317:2399  require(requests[_requestIndex].approved[msg.sender] == false, 'already approved') */\n      tag_140\n      jumpi\n      mload(0x40)\n      0x08c379a000000000000000000000000000000000000000000000000000000000\n      dup2\n      mstore\n      0x04\n      add\n      tag_141\n      swap1\n      tag_142\n      jump\t// in\n    tag_141:\n      mload(0x40)\n      dup1\n      swap2\n      sub\n      swap1\n      revert\n    tag_140:\n        /* \"SharedWallet.sol\":2469:2477  requests */\n      0x04\n        /* \"SharedWallet.sol\":2478:2491  _requestIndex */\n      dup2\n        /* \"SharedWallet.sol\":2469:2492  requests[_requestIndex] */\n      dup2\n      sload\n      dup2\n      lt\n      tag_143\n      jumpi\n      tag_144\n      tag_54\n      jump\t// in\n    tag_144:\n    tag_143:\n      swap1\n      0x00\n      mstore\n      keccak256(0x00, 0x20)\n      swap1\n      0x03\n      mul\n      add\n        /* \"SharedWallet.sol\":2469:2510  requests[_requestIndex].numberOfApprovals */\n      0x01\n      add\n      0x00\n        /* \"SharedWallet.sol\":2469:2512  requests[_requestIndex].numberOfApprovals++ */\n      dup2\n      sload\n      dup1\n      swap3\n      swap2\n      swap1\n      tag_146\n      swap1\n      tag_112\n      jump\t// in\n    tag_146:\n      swap2\n      swap1\n      pop\n      sstore\n      pop\n        /* \"SharedWallet.sol\":2569:2573  true */\n      0x01\n        /* \"SharedWallet.sol\":2522:2530  requests */\n      0x04\n        /* \"SharedWallet.sol\":2531:2544  _requestIndex */\n      dup3\n        /* \"SharedWallet.sol\":2522:2545  requests[_requestIndex] */\n      dup2\n      sload\n      dup2\n      lt\n      tag_147\n      jumpi\n      tag_148\n      tag_54\n      jump\t// in\n    tag_148:\n    tag_147:\n      swap1\n      0x00\n      mstore\n      keccak256(0x00, 0x20)\n      swap1\n      0x03\n      mul\n      add\n        /* \"SharedWallet.sol\":2522:2554  requests[_requestIndex].approved */\n      0x02\n      add\n        /* \"SharedWallet.sol\":2522:2566  requests[_requestIndex].approved[msg.sender] */\n      0x00\n        /* \"SharedWallet.sol\":2555:2565  msg.sender */\n      caller\n        /* \"SharedWallet.sol\":2522:2566  requests[_requestIndex].approved[msg.sender] */\n      0xffffffffffffffffffffffffffffffffffffffff\n      and\n      0xffffffffffffffffffffffffffffffffffffffff\n      and\n      dup2\n      mstore\n      0x20\n      add\n      swap1\n      dup2\n      mstore\n      0x20\n      add\n      0x00\n      keccak256\n      0x00\n        /* \"SharedWallet.sol\":2522:2573  requests[_requestIndex].approved[msg.sender] = true */\n      0x0100\n      exp\n      dup2\n      sload\n      dup2\n      0xff\n      mul\n      not\n      and\n      swap1\n      dup4\n      iszero\n      iszero\n      mul\n      or\n      swap1\n      sstore\n      pop\n        /* \"SharedWallet.sol\":2010:2580  function approve(uint _requestIndex) external {... */\n      pop\n      jump\t// out\n        /* \"SharedWallet.sol\":976:1236  function transferOwnership(address _newOwner) external onlyOwner {... */\n    tag_45:\n        /* \"SharedWallet.sol\":466:471  owner */\n      0x00\n      dup1\n      sload\n      swap1\n      0x0100\n      exp\n      swap1\n      div\n      0xffffffffffffffffffffffffffffffffffffffff\n      and\n        /* \"SharedWallet.sol\":452:471  msg.sender == owner */\n      0xffffffffffffffffffffffffffffffffffffffff\n      and\n        /* \"SharedWallet.sol\":452:462  msg.sender */\n      caller\n        /* \"SharedWallet.sol\":452:471  msg.sender == owner */\n      0xffffffffffffffffffffffffffffffffffffffff\n      and\n      eq\n        /* \"SharedWallet.sol\":444:486  require(msg.sender == owner, 'only owner') */\n      tag_151\n      jumpi\n      mload(0x40)\n      0x08c379a000000000000000000000000000000000000000000000000000000000\n      dup2\n      mstore\n      0x04\n      add\n      tag_152\n      swap1\n      tag_76\n      jump\t// in\n    tag_152:\n      mload(0x40)\n      dup1\n      swap2\n      sub\n      swap1\n      revert\n    tag_151:\n        /* \"SharedWallet.sol\":1072:1077  owner */\n      0x00\n      dup1\n      sload\n      swap1\n      0x0100\n      exp\n      swap1\n      div\n      0xffffffffffffffffffffffffffffffffffffffff\n      and\n        /* \"SharedWallet.sol\":1059:1077  _newOwner != owner */\n      0xffffffffffffffffffffffffffffffffffffffff\n      and\n        /* \"SharedWallet.sol\":1059:1068  _newOwner */\n      dup2\n        /* \"SharedWallet.sol\":1059:1077  _newOwner != owner */\n      0xffffffffffffffffffffffffffffffffffffffff\n      and\n      eq\n      iszero\n        /* \"SharedWallet.sol\":1051:1115  require(_newOwner != owner, 'cannot transfer ownership to self') */\n      tag_154\n      jumpi\n      mload(0x40)\n      0x08c379a000000000000000000000000000000000000000000000000000000000\n      dup2\n      mstore\n      0x04\n      add\n      tag_155\n      swap1\n      tag_156\n      jump\t// in\n    tag_155:\n      mload(0x40)\n      dup1\n      swap2\n      sub\n      swap1\n      revert\n    tag_154:\n        /* \"SharedWallet.sol\":1154:1155  0 */\n      0x00\n        /* \"SharedWallet.sol\":1133:1156  _newOwner != address(0) */\n      0xffffffffffffffffffffffffffffffffffffffff\n      and\n        /* \"SharedWallet.sol\":1133:1142  _newOwner */\n      dup2\n        /* \"SharedWallet.sol\":1133:1156  _newOwner != address(0) */\n      0xffffffffffffffffffffffffffffffffffffffff\n      and\n      eq\n      iszero\n        /* \"SharedWallet.sol\":1125:1202  require(_newOwner != address(0), 'cannot transfer ownership to null address') */\n      tag_157\n      jumpi\n      mload(0x40)\n      0x08c379a000000000000000000000000000000000000000000000000000000000\n      dup2\n      mstore\n      0x04\n      add\n      tag_158\n      swap1\n      tag_159\n      jump\t// in\n    tag_158:\n      mload(0x40)\n      dup1\n      swap2\n      sub\n      swap1\n      revert\n    tag_157:\n        /* \"SharedWallet.sol\":1220:1229  _newOwner */\n      dup1\n        /* \"SharedWallet.sol\":1212:1217  owner */\n      0x00\n      dup1\n        /* \"SharedWallet.sol\":1212:1229  owner = _newOwner */\n      0x0100\n      exp\n      dup2\n      sload\n      dup2\n      0xffffffffffffffffffffffffffffffffffffffff\n      mul\n      not\n      and\n      swap1\n      dup4\n      0xffffffffffffffffffffffffffffffffffffffff\n      and\n      mul\n      or\n      swap1\n      sstore\n      pop\n        /* \"SharedWallet.sol\":976:1236  function transferOwnership(address _newOwner) external onlyOwner {... */\n      pop\n      jump\t// out\n        /* \"#utility.yul\":88:205   */\n    tag_161:\n        /* \"#utility.yul\":197:198   */\n      0x00\n        /* \"#utility.yul\":194:195   */\n      dup1\n        /* \"#utility.yul\":187:199   */\n      revert\n        /* \"#utility.yul\":334:411   */\n    tag_163:\n        /* \"#utility.yul\":371:378   */\n      0x00\n        /* \"#utility.yul\":400:405   */\n      dup2\n        /* \"#utility.yul\":389:405   */\n      swap1\n      pop\n        /* \"#utility.yul\":334:411   */\n      swap2\n      swap1\n      pop\n      jump\t// out\n        /* \"#utility.yul\":417:539   */\n    tag_164:\n        /* \"#utility.yul\":490:514   */\n      tag_209\n        /* \"#utility.yul\":508:513   */\n      dup2\n        /* \"#utility.yul\":490:514   */\n      tag_163\n      jump\t// in\n    tag_209:\n        /* \"#utility.yul\":483:488   */\n      dup2\n        /* \"#utility.yul\":480:515   */\n      eq\n        /* \"#utility.yul\":470:533   */\n      tag_210\n      jumpi\n        /* \"#utility.yul\":529:530   */\n      0x00\n        /* \"#utility.yul\":526:527   */\n      dup1\n        /* \"#utility.yul\":519:531   */\n      revert\n        /* \"#utility.yul\":470:533   */\n    tag_210:\n        /* \"#utility.yul\":417:539   */\n      pop\n      jump\t// out\n        /* \"#utility.yul\":545:684   */\n    tag_165:\n        /* \"#utility.yul\":591:596   */\n      0x00\n        /* \"#utility.yul\":629:635   */\n      dup2\n        /* \"#utility.yul\":616:636   */\n      calldataload\n        /* \"#utility.yul\":607:636   */\n      swap1\n      pop\n        /* \"#utility.yul\":645:678   */\n      tag_212\n        /* \"#utility.yul\":672:677   */\n      dup2\n        /* \"#utility.yul\":645:678   */\n      tag_164\n      jump\t// in\n    tag_212:\n        /* \"#utility.yul\":545:684   */\n      swap3\n      swap2\n      pop\n      pop\n      jump\t// out\n        /* \"#utility.yul\":690:1019   */\n    tag_15:\n        /* \"#utility.yul\":749:755   */\n      0x00\n        /* \"#utility.yul\":798:800   */\n      0x20\n        /* \"#utility.yul\":786:795   */\n      dup3\n        /* \"#utility.yul\":777:784   */\n      dup5\n        /* \"#utility.yul\":773:796   */\n      sub\n        /* \"#utility.yul\":769:801   */\n      slt\n        /* \"#utility.yul\":766:885   */\n      iszero\n      tag_214\n      jumpi\n        /* \"#utility.yul\":804:883   */\n      tag_215\n      tag_161\n      jump\t// in\n    tag_215:\n        /* \"#utility.yul\":766:885   */\n    tag_214:\n        /* \"#utility.yul\":924:925   */\n      0x00\n        /* \"#utility.yul\":949:1002   */\n      tag_216\n        /* \"#utility.yul\":994:1001   */\n      dup5\n        /* \"#utility.yul\":985:991   */\n      dup3\n        /* \"#utility.yul\":974:983   */\n      dup6\n        /* \"#utility.yul\":970:992   */\n      add\n        /* \"#utility.yul\":949:1002   */\n      tag_165\n      jump\t// in\n    tag_216:\n        /* \"#utility.yul\":939:1002   */\n      swap2\n      pop\n        /* \"#utility.yul\":895:1012   */\n      pop\n        /* \"#utility.yul\":690:1019   */\n      swap3\n      swap2\n      pop\n      pop\n      jump\t// out\n        /* \"#utility.yul\":1025:1151   */\n    tag_166:\n        /* \"#utility.yul\":1062:1069   */\n      0x00\n        /* \"#utility.yul\":1102:1144   */\n      0xffffffffffffffffffffffffffffffffffffffff\n        /* \"#utility.yul\":1095:1100   */\n      dup3\n        /* \"#utility.yul\":1091:1145   */\n      and\n        /* \"#utility.yul\":1080:1145   */\n      swap1\n      pop\n        /* \"#utility.yul\":1025:1151   */\n      swap2\n      swap1\n      pop\n      jump\t// out\n        /* \"#utility.yul\":1157:1253   */\n    tag_167:\n        /* \"#utility.yul\":1194:1201   */\n      0x00\n        /* \"#utility.yul\":1223:1247   */\n      tag_219\n        /* \"#utility.yul\":1241:1246   */\n      dup3\n        /* \"#utility.yul\":1223:1247   */\n      tag_166\n      jump\t// in\n    tag_219:\n        /* \"#utility.yul\":1212:1247   */\n      swap1\n      pop\n        /* \"#utility.yul\":1157:1253   */\n      swap2\n      swap1\n      pop\n      jump\t// out\n        /* \"#utility.yul\":1259:1377   */\n    tag_168:\n        /* \"#utility.yul\":1346:1370   */\n      tag_221\n        /* \"#utility.yul\":1364:1369   */\n      dup2\n        /* \"#utility.yul\":1346:1370   */\n      tag_167\n      jump\t// in\n    tag_221:\n        /* \"#utility.yul\":1341:1344   */\n      dup3\n        /* \"#utility.yul\":1334:1371   */\n      mstore\n        /* \"#utility.yul\":1259:1377   */\n      pop\n      pop\n      jump\t// out\n        /* \"#utility.yul\":1383:1605   */\n    tag_18:\n        /* \"#utility.yul\":1476:1480   */\n      0x00\n        /* \"#utility.yul\":1514:1516   */\n      0x20\n        /* \"#utility.yul\":1503:1512   */\n      dup3\n        /* \"#utility.yul\":1499:1517   */\n      add\n        /* \"#utility.yul\":1491:1517   */\n      swap1\n      pop\n        /* \"#utility.yul\":1527:1598   */\n      tag_223\n        /* \"#utility.yul\":1595:1596   */\n      0x00\n        /* \"#utility.yul\":1584:1593   */\n      dup4\n        /* \"#utility.yul\":1580:1597   */\n      add\n        /* \"#utility.yul\":1571:1577   */\n      dup5\n        /* \"#utility.yul\":1527:1598   */\n      tag_168\n      jump\t// in\n    tag_223:\n        /* \"#utility.yul\":1383:1605   */\n      swap3\n      swap2\n      pop\n      pop\n      jump\t// out\n        /* \"#utility.yul\":1611:1733   */\n    tag_169:\n        /* \"#utility.yul\":1684:1708   */\n      tag_225\n        /* \"#utility.yul\":1702:1707   */\n      dup2\n        /* \"#utility.yul\":1684:1708   */\n      tag_167\n      jump\t// in\n    tag_225:\n        /* \"#utility.yul\":1677:1682   */\n      dup2\n        /* \"#utility.yul\":1674:1709   */\n      eq\n        /* \"#utility.yul\":1664:1727   */\n      tag_226\n      jumpi\n        /* \"#utility.yul\":1723:1724   */\n      0x00\n        /* \"#utility.yul\":1720:1721   */\n      dup1\n        /* \"#utility.yul\":1713:1725   */\n      revert\n        /* \"#utility.yul\":1664:1727   */\n    tag_226:\n        /* \"#utility.yul\":1611:1733   */\n      pop\n      jump\t// out\n        /* \"#utility.yul\":1739:1878   */\n    tag_170:\n        /* \"#utility.yul\":1785:1790   */\n      0x00\n        /* \"#utility.yul\":1823:1829   */\n      dup2\n        /* \"#utility.yul\":1810:1830   */\n      calldataload\n        /* \"#utility.yul\":1801:1830   */\n      swap1\n      pop\n        /* \"#utility.yul\":1839:1872   */\n      tag_228\n        /* \"#utility.yul\":1866:1871   */\n      dup2\n        /* \"#utility.yul\":1839:1872   */\n      tag_169\n      jump\t// in\n    tag_228:\n        /* \"#utility.yul\":1739:1878   */\n      swap3\n      swap2\n      pop\n      pop\n      jump\t// out\n        /* \"#utility.yul\":1884:2213   */\n    tag_24:\n        /* \"#utility.yul\":1943:1949   */\n      0x00\n        /* \"#utility.yul\":1992:1994   */\n      0x20\n        /* \"#utility.yul\":1980:1989   */\n      dup3\n        /* \"#utility.yul\":1971:1978   */\n      dup5\n        /* \"#utility.yul\":1967:1990   */\n      sub\n        /* \"#utility.yul\":1963:1995   */\n      slt\n        /* \"#utility.yul\":1960:2079   */\n      iszero\n      tag_230\n      jumpi\n        /* \"#utility.yul\":1998:2077   */\n      tag_231\n      tag_161\n      jump\t// in\n    tag_231:\n        /* \"#utility.yul\":1960:2079   */\n    tag_230:\n        /* \"#utility.yul\":2118:2119   */\n      0x00\n        /* \"#utility.yul\":2143:2196   */\n      tag_232\n        /* \"#utility.yul\":2188:2195   */\n      dup5\n        /* \"#utility.yul\":2179:2185   */\n      dup3\n        /* \"#utility.yul\":2168:2177   */\n      dup6\n        /* \"#utility.yul\":2164:2186   */\n      add\n        /* \"#utility.yul\":2143:2196   */\n      tag_170\n      jump\t// in\n    tag_232:\n        /* \"#utility.yul\":2133:2196   */\n      swap2\n      pop\n        /* \"#utility.yul\":2089:2206   */\n      pop\n        /* \"#utility.yul\":1884:2213   */\n      swap3\n      swap2\n      pop\n      pop\n      jump\t// out\n        /* \"#utility.yul\":2219:2309   */\n    tag_171:\n        /* \"#utility.yul\":2253:2260   */\n      0x00\n        /* \"#utility.yul\":2296:2301   */\n      dup2\n        /* \"#utility.yul\":2289:2302   */\n      iszero\n        /* \"#utility.yul\":2282:2303   */\n      iszero\n        /* \"#utility.yul\":2271:2303   */\n      swap1\n      pop\n        /* \"#utility.yul\":2219:2309   */\n      swap2\n      swap1\n      pop\n      jump\t// out\n        /* \"#utility.yul\":2315:2424   */\n    tag_172:\n        /* \"#utility.yul\":2396:2417   */\n      tag_235\n        /* \"#utility.yul\":2411:2416   */\n      dup2\n        /* \"#utility.yul\":2396:2417   */\n      tag_171\n      jump\t// in\n    tag_235:\n        /* \"#utility.yul\":2391:2394   */\n      dup3\n        /* \"#utility.yul\":2384:2418   */\n      mstore\n        /* \"#utility.yul\":2315:2424   */\n      pop\n      pop\n      jump\t// out\n        /* \"#utility.yul\":2430:2640   */\n    tag_27:\n        /* \"#utility.yul\":2517:2521   */\n      0x00\n        /* \"#utility.yul\":2555:2557   */\n      0x20\n        /* \"#utility.yul\":2544:2553   */\n      dup3\n        /* \"#utility.yul\":2540:2558   */\n      add\n        /* \"#utility.yul\":2532:2558   */\n      swap1\n      pop\n        /* \"#utility.yul\":2568:2633   */\n      tag_237\n        /* \"#utility.yul\":2630:2631   */\n      0x00\n        /* \"#utility.yul\":2619:2628   */\n      dup4\n        /* \"#utility.yul\":2615:2632   */\n      add\n        /* \"#utility.yul\":2606:2612   */\n      dup5\n        /* \"#utility.yul\":2568:2633   */\n      tag_172\n      jump\t// in\n    tag_237:\n        /* \"#utility.yul\":2430:2640   */\n      swap3\n      swap2\n      pop\n      pop\n      jump\t// out\n        /* \"#utility.yul\":2646:2815   */\n    tag_173:\n        /* \"#utility.yul\":2730:2741   */\n      0x00\n        /* \"#utility.yul\":2764:2770   */\n      dup3\n        /* \"#utility.yul\":2759:2762   */\n      dup3\n        /* \"#utility.yul\":2752:2771   */\n      mstore\n        /* \"#utility.yul\":2804:2808   */\n      0x20\n        /* \"#utility.yul\":2799:2802   */\n      dup3\n        /* \"#utility.yul\":2795:2809   */\n      add\n        /* \"#utility.yul\":2780:2809   */\n      swap1\n      pop\n        /* \"#utility.yul\":2646:2815   */\n      swap3\n      swap2\n      pop\n      pop\n      jump\t// out\n        /* \"#utility.yul\":2821:2990   */\n    tag_174:\n        /* \"#utility.yul\":2961:2982   */\n      0x696e646578206f7574206f6620626f756e647300000000000000000000000000\n        /* \"#utility.yul\":2957:2958   */\n      0x00\n        /* \"#utility.yul\":2949:2955   */\n      dup3\n        /* \"#utility.yul\":2945:2959   */\n      add\n        /* \"#utility.yul\":2938:2983   */\n      mstore\n        /* \"#utility.yul\":2821:2990   */\n      pop\n      jump\t// out\n        /* \"#utility.yul\":2996:3362   */\n    tag_175:\n        /* \"#utility.yul\":3138:3141   */\n      0x00\n        /* \"#utility.yul\":3159:3226   */\n      tag_241\n        /* \"#utility.yul\":3223:3225   */\n      0x13\n        /* \"#utility.yul\":3218:3221   */\n      dup4\n        /* \"#utility.yul\":3159:3226   */\n      tag_173\n      jump\t// in\n    tag_241:\n        /* \"#utility.yul\":3152:3226   */\n      swap2\n      pop\n        /* \"#utility.yul\":3235:3328   */\n      tag_242\n        /* \"#utility.yul\":3324:3327   */\n      dup3\n        /* \"#utility.yul\":3235:3328   */\n      tag_174\n      jump\t// in\n    tag_242:\n        /* \"#utility.yul\":3353:3355   */\n      0x20\n        /* \"#utility.yul\":3348:3351   */\n      dup3\n        /* \"#utility.yul\":3344:3356   */\n      add\n        /* \"#utility.yul\":3337:3356   */\n      swap1\n      pop\n        /* \"#utility.yul\":2996:3362   */\n      swap2\n      swap1\n      pop\n      jump\t// out\n        /* \"#utility.yul\":3368:3787   */\n    tag_51:\n        /* \"#utility.yul\":3534:3538   */\n      0x00\n        /* \"#utility.yul\":3572:3574   */\n      0x20\n        /* \"#utility.yul\":3561:3570   */\n      dup3\n        /* \"#utility.yul\":3557:3575   */\n      add\n        /* \"#utility.yul\":3549:3575   */\n      swap1\n      pop\n        /* \"#utility.yul\":3621:3630   */\n      dup2\n        /* \"#utility.yul\":3615:3619   */\n      dup2\n        /* \"#utility.yul\":3611:3631   */\n      sub\n        /* \"#utility.yul\":3607:3608   */\n      0x00\n        /* \"#utility.yul\":3596:3605   */\n      dup4\n        /* \"#utility.yul\":3592:3609   */\n      add\n        /* \"#utility.yul\":3585:3632   */\n      mstore\n        /* \"#utility.yul\":3649:3780   */\n      tag_244\n        /* \"#utility.yul\":3775:3779   */\n      dup2\n        /* \"#utility.yul\":3649:3780   */\n      tag_175\n      jump\t// in\n    tag_244:\n        /* \"#utility.yul\":3641:3780   */\n      swap1\n      pop\n        /* \"#utility.yul\":3368:3787   */\n      swap2\n      swap1\n      pop\n      jump\t// out\n        /* \"#utility.yul\":3793:3973   */\n    tag_54:\n        /* \"#utility.yul\":3841:3918   */\n      0x4e487b7100000000000000000000000000000000000000000000000000000000\n        /* \"#utility.yul\":3838:3839   */\n      0x00\n        /* \"#utility.yul\":3831:3919   */\n      mstore\n        /* \"#utility.yul\":3938:3942   */\n      0x32\n        /* \"#utility.yul\":3935:3936   */\n      0x04\n        /* \"#utility.yul\":3928:3943   */\n      mstore\n        /* \"#utility.yul\":3962:3966   */\n      0x24\n        /* \"#utility.yul\":3959:3960   */\n      0x00\n        /* \"#utility.yul\":3952:3967   */\n      revert\n        /* \"#utility.yul\":3979:4199   */\n    tag_176:\n        /* \"#utility.yul\":4119:4153   */\n      0x6f6e6c7920617070726f766564206f776e6572732063616e2077697468647261\n        /* \"#utility.yul\":4115:4116   */\n      0x00\n        /* \"#utility.yul\":4107:4113   */\n      dup3\n        /* \"#utility.yul\":4103:4117   */\n      add\n        /* \"#utility.yul\":4096:4154   */\n      mstore\n        /* \"#utility.yul\":4188:4191   */\n      0x7700000000000000000000000000000000000000000000000000000000000000\n        /* \"#utility.yul\":4183:4185   */\n      0x20\n        /* \"#utility.yul\":4175:4181   */\n      dup3\n        /* \"#utility.yul\":4171:4186   */\n      add\n        /* \"#utility.yul\":4164:4192   */\n      mstore\n        /* \"#utility.yul\":3979:4199   */\n      pop\n      jump\t// out\n        /* \"#utility.yul\":4205:4571   */\n    tag_177:\n        /* \"#utility.yul\":4347:4350   */\n      0x00\n        /* \"#utility.yul\":4368:4435   */\n      tag_248\n        /* \"#utility.yul\":4432:4434   */\n      0x21\n        /* \"#utility.yul\":4427:4430   */\n      dup4\n        /* \"#utility.yul\":4368:4435   */\n      tag_173\n      jump\t// in\n    tag_248:\n        /* \"#utility.yul\":4361:4435   */\n      swap2\n      pop\n        /* \"#utility.yul\":4444:4537   */\n      tag_249\n        /* \"#utility.yul\":4533:4536   */\n      dup3\n        /* \"#utility.yul\":4444:4537   */\n      tag_176\n      jump\t// in\n    tag_249:\n        /* \"#utility.yul\":4562:4564   */\n      0x40\n        /* \"#utility.yul\":4557:4560   */\n      dup3\n        /* \"#utility.yul\":4553:4565   */\n      add\n        /* \"#utility.yul\":4546:4565   */\n      swap1\n      pop\n        /* \"#utility.yul\":4205:4571   */\n      swap2\n      swap1\n      pop\n      jump\t// out\n        /* \"#utility.yul\":4577:4996   */\n    tag_58:\n        /* \"#utility.yul\":4743:4747   */\n      0x00\n        /* \"#utility.yul\":4781:4783   */\n      0x20\n        /* \"#utility.yul\":4770:4779   */\n      dup3\n        /* \"#utility.yul\":4766:4784   */\n      add\n        /* \"#utility.yul\":4758:4784   */\n      swap1\n      pop\n        /* \"#utility.yul\":4830:4839   */\n      dup2\n        /* \"#utility.yul\":4824:4828   */\n      dup2\n        /* \"#utility.yul\":4820:4840   */\n      sub\n        /* \"#utility.yul\":4816:4817   */\n      0x00\n        /* \"#utility.yul\":4805:4814   */\n      dup4\n        /* \"#utility.yul\":4801:4818   */\n      add\n        /* \"#utility.yul\":4794:4841   */\n      mstore\n        /* \"#utility.yul\":4858:4989   */\n      tag_251\n        /* \"#utility.yul\":4984:4988   */\n      dup2\n        /* \"#utility.yul\":4858:4989   */\n      tag_177\n      jump\t// in\n    tag_251:\n        /* \"#utility.yul\":4850:4989   */\n      swap1\n      pop\n        /* \"#utility.yul\":4577:4996   */\n      swap2\n      swap1\n      pop\n      jump\t// out\n        /* \"#utility.yul\":5002:5180   */\n    tag_178:\n        /* \"#utility.yul\":5142:5172   */\n      0x6e6f7420616c6c206f776e657273206861766520617070726f76656400000000\n        /* \"#utility.yul\":5138:5139   */\n      0x00\n        /* \"#utility.yul\":5130:5136   */\n      dup3\n        /* \"#utility.yul\":5126:5140   */\n      add\n        /* \"#utility.yul\":5119:5173   */\n      mstore\n        /* \"#utility.yul\":5002:5180   */\n      pop\n      jump\t// out\n        /* \"#utility.yul\":5186:5552   */\n    tag_179:\n        /* \"#utility.yul\":5328:5331   */\n      0x00\n        /* \"#utility.yul\":5349:5416   */\n      tag_254\n        /* \"#utility.yul\":5413:5415   */\n      0x1c\n        /* \"#utility.yul\":5408:5411   */\n      dup4\n        /* \"#utility.yul\":5349:5416   */\n      tag_173\n      jump\t// in\n    tag_254:\n        /* \"#utility.yul\":5342:5416   */\n      swap2\n      pop\n        /* \"#utility.yul\":5425:5518   */\n      tag_255\n        /* \"#utility.yul\":5514:5517   */\n      dup3\n        /* \"#utility.yul\":5425:5518   */\n      tag_178\n      jump\t// in\n    tag_255:\n        /* \"#utility.yul\":5543:5545   */\n      0x20\n        /* \"#utility.yul\":5538:5541   */\n      dup3\n        /* \"#utility.yul\":5534:5546   */\n      add\n        /* \"#utility.yul\":5527:5546   */\n      swap1\n      pop\n        /* \"#utility.yul\":5186:5552   */\n      swap2\n      swap1\n      pop\n      jump\t// out\n        /* \"#utility.yul\":5558:5977   */\n    tag_64:\n        /* \"#utility.yul\":5724:5728   */\n      0x00\n        /* \"#utility.yul\":5762:5764   */\n      0x20\n        /* \"#utility.yul\":5751:5760   */\n      dup3\n        /* \"#utility.yul\":5747:5765   */\n      add\n        /* \"#utility.yul\":5739:5765   */\n      swap1\n      pop\n        /* \"#utility.yul\":5811:5820   */\n      dup2\n        /* \"#utility.yul\":5805:5809   */\n      dup2\n        /* \"#utility.yul\":5801:5821   */\n      sub\n        /* \"#utility.yul\":5797:5798   */\n      0x00\n        /* \"#utility.yul\":5786:5795   */\n      dup4\n        /* \"#utility.yul\":5782:5799   */\n      add\n        /* \"#utility.yul\":5775:5822   */\n      mstore\n        /* \"#utility.yul\":5839:5970   */\n      tag_257\n        /* \"#utility.yul\":5965:5969   */\n      dup2\n        /* \"#utility.yul\":5839:5970   */\n      tag_179\n      jump\t// in\n    tag_257:\n        /* \"#utility.yul\":5831:5970   */\n      swap1\n      pop\n        /* \"#utility.yul\":5558:5977   */\n      swap2\n      swap1\n      pop\n      jump\t// out\n        /* \"#utility.yul\":5983:6143   */\n    tag_180:\n        /* \"#utility.yul\":6123:6135   */\n      0x6f6e6c79206f776e657200000000000000000000000000000000000000000000\n        /* \"#utility.yul\":6119:6120   */\n      0x00\n        /* \"#utility.yul\":6111:6117   */\n      dup3\n        /* \"#utility.yul\":6107:6121   */\n      add\n        /* \"#utility.yul\":6100:6136   */\n      mstore\n        /* \"#utility.yul\":5983:6143   */\n      pop\n      jump\t// out\n        /* \"#utility.yul\":6149:6515   */\n    tag_181:\n        /* \"#utility.yul\":6291:6294   */\n      0x00\n        /* \"#utility.yul\":6312:6379   */\n      tag_260\n        /* \"#utility.yul\":6376:6378   */\n      0x0a\n        /* \"#utility.yul\":6371:6374   */\n      dup4\n        /* \"#utility.yul\":6312:6379   */\n      tag_173\n      jump\t// in\n    tag_260:\n        /* \"#utility.yul\":6305:6379   */\n      swap2\n      pop\n        /* \"#utility.yul\":6388:6481   */\n      tag_261\n        /* \"#utility.yul\":6477:6480   */\n      dup3\n        /* \"#utility.yul\":6388:6481   */\n      tag_180\n      jump\t// in\n    tag_261:\n        /* \"#utility.yul\":6506:6508   */\n      0x20\n        /* \"#utility.yul\":6501:6504   */\n      dup3\n        /* \"#utility.yul\":6497:6509   */\n      add\n        /* \"#utility.yul\":6490:6509   */\n      swap1\n      pop\n        /* \"#utility.yul\":6149:6515   */\n      swap2\n      swap1\n      pop\n      jump\t// out\n        /* \"#utility.yul\":6521:6940   */\n    tag_76:\n        /* \"#utility.yul\":6687:6691   */\n      0x00\n        /* \"#utility.yul\":6725:6727   */\n      0x20\n        /* \"#utility.yul\":6714:6723   */\n      dup3\n        /* \"#utility.yul\":6710:6728   */\n      add\n        /* \"#utility.yul\":6702:6728   */\n      swap1\n      pop\n        /* \"#utility.yul\":6774:6783   */\n      dup2\n        /* \"#utility.yul\":6768:6772   */\n      dup2\n        /* \"#utility.yul\":6764:6784   */\n      sub\n        /* \"#utility.yul\":6760:6761   */\n      0x00\n        /* \"#utility.yul\":6749:6758   */\n      dup4\n        /* \"#utility.yul\":6745:6762   */\n      add\n        /* \"#utility.yul\":6738:6785   */\n      mstore\n        /* \"#utility.yul\":6802:6933   */\n      tag_263\n        /* \"#utility.yul\":6928:6932   */\n      dup2\n        /* \"#utility.yul\":6802:6933   */\n      tag_181\n      jump\t// in\n    tag_263:\n        /* \"#utility.yul\":6794:6933   */\n      swap1\n      pop\n        /* \"#utility.yul\":6521:6940   */\n      swap2\n      swap1\n      pop\n      jump\t// out\n        /* \"#utility.yul\":6946:7126   */\n    tag_182:\n        /* \"#utility.yul\":6994:7071   */\n      0x4e487b7100000000000000000000000000000000000000000000000000000000\n        /* \"#utility.yul\":6991:6992   */\n      0x00\n        /* \"#utility.yul\":6984:7072   */\n      mstore\n        /* \"#utility.yul\":7091:7095   */\n      0x11\n        /* \"#utility.yul\":7088:7089   */\n      0x04\n        /* \"#utility.yul\":7081:7096   */\n      mstore\n        /* \"#utility.yul\":7115:7119   */\n      0x24\n        /* \"#utility.yul\":7112:7113   */\n      0x00\n        /* \"#utility.yul\":7105:7120   */\n      revert\n        /* \"#utility.yul\":7132:7323   */\n    tag_81:\n        /* \"#utility.yul\":7172:7176   */\n      0x00\n        /* \"#utility.yul\":7192:7212   */\n      tag_266\n        /* \"#utility.yul\":7210:7211   */\n      dup3\n        /* \"#utility.yul\":7192:7212   */\n      tag_163\n      jump\t// in\n    tag_266:\n        /* \"#utility.yul\":7187:7212   */\n      swap2\n      pop\n        /* \"#utility.yul\":7226:7246   */\n      tag_267\n        /* \"#utility.yul\":7244:7245   */\n      dup4\n        /* \"#utility.yul\":7226:7246   */\n      tag_163\n      jump\t// in\n    tag_267:\n        /* \"#utility.yul\":7221:7246   */\n      swap3\n      pop\n        /* \"#utility.yul\":7265:7266   */\n      dup3\n        /* \"#utility.yul\":7262:7263   */\n      dup3\n        /* \"#utility.yul\":7259:7267   */\n      lt\n        /* \"#utility.yul\":7256:7290   */\n      iszero\n      tag_268\n      jumpi\n        /* \"#utility.yul\":7270:7288   */\n      tag_269\n      tag_182\n      jump\t// in\n    tag_269:\n        /* \"#utility.yul\":7256:7290   */\n    tag_268:\n        /* \"#utility.yul\":7315:7316   */\n      dup3\n        /* \"#utility.yul\":7312:7313   */\n      dup3\n        /* \"#utility.yul\":7308:7317   */\n      sub\n        /* \"#utility.yul\":7300:7317   */\n      swap1\n      pop\n        /* \"#utility.yul\":7132:7323   */\n      swap3\n      swap2\n      pop\n      pop\n      jump\t// out\n        /* \"#utility.yul\":7329:7500   */\n    tag_96:\n        /* \"#utility.yul\":7368:7371   */\n      0x00\n        /* \"#utility.yul\":7391:7415   */\n      tag_271\n        /* \"#utility.yul\":7409:7414   */\n      dup3\n        /* \"#utility.yul\":7391:7415   */\n      tag_163\n      jump\t// in\n    tag_271:\n        /* \"#utility.yul\":7382:7415   */\n      swap2\n      pop\n        /* \"#utility.yul\":7437:7441   */\n      0x00\n        /* \"#utility.yul\":7430:7435   */\n      dup3\n        /* \"#utility.yul\":7427:7442   */\n      eq\n        /* \"#utility.yul\":7424:7465   */\n      iszero\n      tag_272\n      jumpi\n        /* \"#utility.yul\":7445:7463   */\n      tag_273\n      tag_182\n      jump\t// in\n    tag_273:\n        /* \"#utility.yul\":7424:7465   */\n    tag_272:\n        /* \"#utility.yul\":7492:7493   */\n      0x01\n        /* \"#utility.yul\":7485:7490   */\n      dup3\n        /* \"#utility.yul\":7481:7494   */\n      sub\n        /* \"#utility.yul\":7474:7494   */\n      swap1\n      pop\n        /* \"#utility.yul\":7329:7500   */\n      swap2\n      swap1\n      pop\n      jump\t// out\n        /* \"#utility.yul\":7506:7726   */\n    tag_183:\n        /* \"#utility.yul\":7646:7680   */\n      0x63616e6e6f742061646420636f6e7472616374206f776e657220746f206c6973\n        /* \"#utility.yul\":7642:7643   */\n      0x00\n        /* \"#utility.yul\":7634:7640   */\n      dup3\n        /* \"#utility.yul\":7630:7644   */\n      add\n        /* \"#utility.yul\":7623:7681   */\n      mstore\n        /* \"#utility.yul\":7715:7718   */\n      0x7400000000000000000000000000000000000000000000000000000000000000\n        /* \"#utility.yul\":7710:7712   */\n      0x20\n        /* \"#utility.yul\":7702:7708   */\n      dup3\n        /* \"#utility.yul\":7698:7713   */\n      add\n        /* \"#utility.yul\":7691:7719   */\n      mstore\n        /* \"#utility.yul\":7506:7726   */\n      pop\n      jump\t// out\n        /* \"#utility.yul\":7732:8098   */\n    tag_184:\n        /* \"#utility.yul\":7874:7877   */\n      0x00\n        /* \"#utility.yul\":7895:7962   */\n      tag_276\n        /* \"#utility.yul\":7959:7961   */\n      0x21\n        /* \"#utility.yul\":7954:7957   */\n      dup4\n        /* \"#utility.yul\":7895:7962   */\n      tag_173\n      jump\t// in\n    tag_276:\n        /* \"#utility.yul\":7888:7962   */\n      swap2\n      pop\n        /* \"#utility.yul\":7971:8064   */\n      tag_277\n        /* \"#utility.yul\":8060:8063   */\n      dup3\n        /* \"#utility.yul\":7971:8064   */\n      tag_183\n      jump\t// in\n    tag_277:\n        /* \"#utility.yul\":8089:8091   */\n      0x40\n        /* \"#utility.yul\":8084:8087   */\n      dup3\n        /* \"#utility.yul\":8080:8092   */\n      add\n        /* \"#utility.yul\":8073:8092   */\n      swap1\n      pop\n        /* \"#utility.yul\":7732:8098   */\n      swap2\n      swap1\n      pop\n      jump\t// out\n        /* \"#utility.yul\":8104:8523   */\n    tag_103:\n        /* \"#utility.yul\":8270:8274   */\n      0x00\n        /* \"#utility.yul\":8308:8310   */\n      0x20\n        /* \"#utility.yul\":8297:8306   */\n      dup3\n        /* \"#utility.yul\":8293:8311   */\n      add\n        /* \"#utility.yul\":8285:8311   */\n      swap1\n      pop\n        /* \"#utility.yul\":8357:8366   */\n      dup2\n        /* \"#utility.yul\":8351:8355   */\n      dup2\n        /* \"#utility.yul\":8347:8367   */\n      sub\n        /* \"#utility.yul\":8343:8344   */\n      0x00\n        /* \"#utility.yul\":8332:8341   */\n      dup4\n        /* \"#utility.yul\":8328:8345   */\n      add\n        /* \"#utility.yul\":8321:8368   */\n      mstore\n        /* \"#utility.yul\":8385:8516   */\n      tag_279\n        /* \"#utility.yul\":8511:8515   */\n      dup2\n        /* \"#utility.yul\":8385:8516   */\n      tag_184\n      jump\t// in\n    tag_279:\n        /* \"#utility.yul\":8377:8516   */\n      swap1\n      pop\n        /* \"#utility.yul\":8104:8523   */\n      swap2\n      swap1\n      pop\n      jump\t// out\n        /* \"#utility.yul\":8529:8710   */\n    tag_185:\n        /* \"#utility.yul\":8669:8702   */\n      0x63616e6e6f7420616464206e756c6c206164647265737320746f206c69737400\n        /* \"#utility.yul\":8665:8666   */\n      0x00\n        /* \"#utility.yul\":8657:8663   */\n      dup3\n        /* \"#utility.yul\":8653:8667   */\n      add\n        /* \"#utility.yul\":8646:8703   */\n      mstore\n        /* \"#utility.yul\":8529:8710   */\n      pop\n      jump\t// out\n        /* \"#utility.yul\":8716:9082   */\n    tag_186:\n        /* \"#utility.yul\":8858:8861   */\n      0x00\n        /* \"#utility.yul\":8879:8946   */\n      tag_282\n        /* \"#utility.yul\":8943:8945   */\n      0x1f\n        /* \"#utility.yul\":8938:8941   */\n      dup4\n        /* \"#utility.yul\":8879:8946   */\n      tag_173\n      jump\t// in\n    tag_282:\n        /* \"#utility.yul\":8872:8946   */\n      swap2\n      pop\n        /* \"#utility.yul\":8955:9048   */\n      tag_283\n        /* \"#utility.yul\":9044:9047   */\n      dup3\n        /* \"#utility.yul\":8955:9048   */\n      tag_185\n      jump\t// in\n    tag_283:\n        /* \"#utility.yul\":9073:9075   */\n      0x20\n        /* \"#utility.yul\":9068:9071   */\n      dup3\n        /* \"#utility.yul\":9064:9076   */\n      add\n        /* \"#utility.yul\":9057:9076   */\n      swap1\n      pop\n        /* \"#utility.yul\":8716:9082   */\n      swap2\n      swap1\n      pop\n      jump\t// out\n        /* \"#utility.yul\":9088:9507   */\n    tag_106:\n        /* \"#utility.yul\":9254:9258   */\n      0x00\n        /* \"#utility.yul\":9292:9294   */\n      0x20\n        /* \"#utility.yul\":9281:9290   */\n      dup3\n        /* \"#utility.yul\":9277:9295   */\n      add\n        /* \"#utility.yul\":9269:9295   */\n      swap1\n      pop\n        /* \"#utility.yul\":9341:9350   */\n      dup2\n        /* \"#utility.yul\":9335:9339   */\n      dup2\n        /* \"#utility.yul\":9331:9351   */\n      sub\n        /* \"#utility.yul\":9327:9328   */\n      0x00\n        /* \"#utility.yul\":9316:9325   */\n      dup4\n        /* \"#utility.yul\":9312:9329   */\n      add\n        /* \"#utility.yul\":9305:9352   */\n      mstore\n        /* \"#utility.yul\":9369:9500   */\n      tag_285\n        /* \"#utility.yul\":9495:9499   */\n      dup2\n        /* \"#utility.yul\":9369:9500   */\n      tag_186\n      jump\t// in\n    tag_285:\n        /* \"#utility.yul\":9361:9500   */\n      swap1\n      pop\n        /* \"#utility.yul\":9088:9507   */\n      swap2\n      swap1\n      pop\n      jump\t// out\n        /* \"#utility.yul\":9513:9693   */\n    tag_187:\n        /* \"#utility.yul\":9653:9685   */\n      0x6164647265737320616c72656164792065786973747320696e206c6973740000\n        /* \"#utility.yul\":9649:9650   */\n      0x00\n        /* \"#utility.yul\":9641:9647   */\n      dup3\n        /* \"#utility.yul\":9637:9651   */\n      add\n        /* \"#utility.yul\":9630:9686   */\n      mstore\n        /* \"#utility.yul\":9513:9693   */\n      pop\n      jump\t// out\n        /* \"#utility.yul\":9699:10065   */\n    tag_188:\n        /* \"#utility.yul\":9841:9844   */\n      0x00\n        /* \"#utility.yul\":9862:9929   */\n      tag_288\n        /* \"#utility.yul\":9926:9928   */\n      0x1e\n        /* \"#utility.yul\":9921:9924   */\n      dup4\n        /* \"#utility.yul\":9862:9929   */\n      tag_173\n      jump\t// in\n    tag_288:\n        /* \"#utility.yul\":9855:9929   */\n      swap2\n      pop\n        /* \"#utility.yul\":9938:10031   */\n      tag_289\n        /* \"#utility.yul\":10027:10030   */\n      dup3\n        /* \"#utility.yul\":9938:10031   */\n      tag_187\n      jump\t// in\n    tag_289:\n        /* \"#utility.yul\":10056:10058   */\n      0x20\n        /* \"#utility.yul\":10051:10054   */\n      dup3\n        /* \"#utility.yul\":10047:10059   */\n      add\n        /* \"#utility.yul\":10040:10059   */\n      swap1\n      pop\n        /* \"#utility.yul\":9699:10065   */\n      swap2\n      swap1\n      pop\n      jump\t// out\n        /* \"#utility.yul\":10071:10490   */\n    tag_109:\n        /* \"#utility.yul\":10237:10241   */\n      0x00\n        /* \"#utility.yul\":10275:10277   */\n      0x20\n        /* \"#utility.yul\":10264:10273   */\n      dup3\n        /* \"#utility.yul\":10260:10278   */\n      add\n        /* \"#utility.yul\":10252:10278   */\n      swap1\n      pop\n        /* \"#utility.yul\":10324:10333   */\n      dup2\n        /* \"#utility.yul\":10318:10322   */\n      dup2\n        /* \"#utility.yul\":10314:10334   */\n      sub\n        /* \"#utility.yul\":10310:10311   */\n      0x00\n        /* \"#utility.yul\":10299:10308   */\n      dup4\n        /* \"#utility.yul\":10295:10312   */\n      add\n        /* \"#utility.yul\":10288:10335   */\n      mstore\n        /* \"#utility.yul\":10352:10483   */\n      tag_291\n        /* \"#utility.yul\":10478:10482   */\n      dup2\n        /* \"#utility.yul\":10352:10483   */\n      tag_188\n      jump\t// in\n    tag_291:\n        /* \"#utility.yul\":10344:10483   */\n      swap1\n      pop\n        /* \"#utility.yul\":10071:10490   */\n      swap2\n      swap1\n      pop\n      jump\t// out\n        /* \"#utility.yul\":10496:10729   */\n    tag_112:\n        /* \"#utility.yul\":10535:10538   */\n      0x00\n        /* \"#utility.yul\":10558:10582   */\n      tag_293\n        /* \"#utility.yul\":10576:10581   */\n      dup3\n        /* \"#utility.yul\":10558:10582   */\n      tag_163\n      jump\t// in\n    tag_293:\n        /* \"#utility.yul\":10549:10582   */\n      swap2\n      pop\n        /* \"#utility.yul\":10604:10670   */\n      0xffffffffffffffffffffffffffffffffffffffffffffffffffffffffffffffff\n        /* \"#utility.yul\":10597:10602   */\n      dup3\n        /* \"#utility.yul\":10594:10671   */\n      eq\n        /* \"#utility.yul\":10591:10694   */\n      iszero\n      tag_294\n      jumpi\n        /* \"#utility.yul\":10674:10692   */\n      tag_295\n      tag_182\n      jump\t// in\n    tag_295:\n        /* \"#utility.yul\":10591:10694   */\n    tag_294:\n        /* \"#utility.yul\":10721:10722   */\n      0x01\n        /* \"#utility.yul\":10714:10719   */\n      dup3\n        /* \"#utility.yul\":10710:10723   */\n      add\n        /* \"#utility.yul\":10703:10723   */\n      swap1\n      pop\n        /* \"#utility.yul\":10496:10729   */\n      swap2\n      swap1\n      pop\n      jump\t// out\n        /* \"#utility.yul\":10735:10914   */\n    tag_189:\n        /* \"#utility.yul\":10875:10906   */\n      0x616d6f756e74206d7573742062652067726561746572207468616e2030000000\n        /* \"#utility.yul\":10871:10872   */\n      0x00\n        /* \"#utility.yul\":10863:10869   */\n      dup3\n        /* \"#utility.yul\":10859:10873   */\n      add\n        /* \"#utility.yul\":10852:10907   */\n      mstore\n        /* \"#utility.yul\":10735:10914   */\n      pop\n      jump\t// out\n        /* \"#utility.yul\":10920:11286   */\n    tag_190:\n        /* \"#utility.yul\":11062:11065   */\n      0x00\n        /* \"#utility.yul\":11083:11150   */\n      tag_298\n        /* \"#utility.yul\":11147:11149   */\n      0x1d\n        /* \"#utility.yul\":11142:11145   */\n      dup4\n        /* \"#utility.yul\":11083:11150   */\n      tag_173\n      jump\t// in\n    tag_298:\n        /* \"#utility.yul\":11076:11150   */\n      swap2\n      pop\n        /* \"#utility.yul\":11159:11252   */\n      tag_299\n        /* \"#utility.yul\":11248:11251   */\n      dup3\n        /* \"#utility.yul\":11159:11252   */\n      tag_189\n      jump\t// in\n    tag_299:\n        /* \"#utility.yul\":11277:11279   */\n      0x20\n        /* \"#utility.yul\":11272:11275   */\n      dup3\n        /* \"#utility.yul\":11268:11280   */\n      add\n        /* \"#utility.yul\":11261:11280   */\n      swap1\n      pop\n        /* \"#utility.yul\":10920:11286   */\n      swap2\n      swap1\n      pop\n      jump\t// out\n        /* \"#utility.yul\":11292:11711   */\n    tag_116:\n        /* \"#utility.yul\":11458:11462   */\n      0x00\n        /* \"#utility.yul\":11496:11498   */\n      0x20\n        /* \"#utility.yul\":11485:11494   */\n      dup3\n        /* \"#utility.yul\":11481:11499   */\n      add\n        /* \"#utility.yul\":11473:11499   */\n      swap1\n      pop\n        /* \"#utility.yul\":11545:11554   */\n      dup2\n        /* \"#utility.yul\":11539:11543   */\n      dup2\n        /* \"#utility.yul\":11535:11555   */\n      sub\n        /* \"#utility.yul\":11531:11532   */\n      0x00\n        /* \"#utility.yul\":11520:11529   */\n      dup4\n        /* \"#utility.yul\":11516:11533   */\n      add\n        /* \"#utility.yul\":11509:11556   */\n      mstore\n        /* \"#utility.yul\":11573:11704   */\n      tag_301\n        /* \"#utility.yul\":11699:11703   */\n      dup2\n        /* \"#utility.yul\":11573:11704   */\n      tag_190\n      jump\t// in\n    tag_301:\n        /* \"#utility.yul\":11565:11704   */\n      swap1\n      pop\n        /* \"#utility.yul\":11292:11711   */\n      swap2\n      swap1\n      pop\n      jump\t// out\n        /* \"#utility.yul\":11717:11890   */\n    tag_191:\n        /* \"#utility.yul\":11857:11882   */\n      0x6f6e6c79206f776e65722063616e207769746864726177000000000000000000\n        /* \"#utility.yul\":11853:11854   */\n      0x00\n        /* \"#utility.yul\":11845:11851   */\n      dup3\n        /* \"#utility.yul\":11841:11855   */\n      add\n        /* \"#utility.yul\":11834:11883   */\n      mstore\n        /* \"#utility.yul\":11717:11890   */\n      pop\n      jump\t// out\n        /* \"#utility.yul\":11896:12262   */\n    tag_192:\n        /* \"#utility.yul\":12038:12041   */\n      0x00\n        /* \"#utility.yul\":12059:12126   */\n      tag_304\n        /* \"#utility.yul\":12123:12125   */\n      0x17\n        /* \"#utility.yul\":12118:12121   */\n      dup4\n        /* \"#utility.yul\":12059:12126   */\n      tag_173\n      jump\t// in\n    tag_304:\n        /* \"#utility.yul\":12052:12126   */\n      swap2\n      pop\n        /* \"#utility.yul\":12135:12228   */\n      tag_305\n        /* \"#utility.yul\":12224:12227   */\n      dup3\n        /* \"#utility.yul\":12135:12228   */\n      tag_191\n      jump\t// in\n    tag_305:\n        /* \"#utility.yul\":12253:12255   */\n      0x20\n        /* \"#utility.yul\":12248:12251   */\n      dup3\n        /* \"#utility.yul\":12244:12256   */\n      add\n        /* \"#utility.yul\":12237:12256   */\n      swap1\n      pop\n        /* \"#utility.yul\":11896:12262   */\n      swap2\n      swap1\n      pop\n      jump\t// out\n        /* \"#utility.yul\":12268:12687   */\n    tag_119:\n        /* \"#utility.yul\":12434:12438   */\n      0x00\n        /* \"#utility.yul\":12472:12474   */\n      0x20\n        /* \"#utility.yul\":12461:12470   */\n      dup3\n        /* \"#utility.yul\":12457:12475   */\n      add\n        /* \"#utility.yul\":12449:12475   */\n      swap1\n      pop\n        /* \"#utility.yul\":12521:12530   */\n      dup2\n        /* \"#utility.yul\":12515:12519   */\n      dup2\n        /* \"#utility.yul\":12511:12531   */\n      sub\n        /* \"#utility.yul\":12507:12508   */\n      0x00\n        /* \"#utility.yul\":12496:12505   */\n      dup4\n        /* \"#utility.yul\":12492:12509   */\n      add\n        /* \"#utility.yul\":12485:12532   */\n      mstore\n        /* \"#utility.yul\":12549:12680   */\n      tag_307\n        /* \"#utility.yul\":12675:12679   */\n      dup2\n        /* \"#utility.yul\":12549:12680   */\n      tag_192\n      jump\t// in\n    tag_307:\n        /* \"#utility.yul\":12541:12680   */\n      swap1\n      pop\n        /* \"#utility.yul\":12268:12687   */\n      swap2\n      swap1\n      pop\n      jump\t// out\n        /* \"#utility.yul\":12693:12998   */\n    tag_121:\n        /* \"#utility.yul\":12733:12736   */\n      0x00\n        /* \"#utility.yul\":12752:12772   */\n      tag_309\n        /* \"#utility.yul\":12770:12771   */\n      dup3\n        /* \"#utility.yul\":12752:12772   */\n      tag_163\n      jump\t// in\n    tag_309:\n        /* \"#utility.yul\":12747:12772   */\n      swap2\n      pop\n        /* \"#utility.yul\":12786:12806   */\n      tag_310\n        /* \"#utility.yul\":12804:12805   */\n      dup4\n        /* \"#utility.yul\":12786:12806   */\n      tag_163\n      jump\t// in\n    tag_310:\n        /* \"#utility.yul\":12781:12806   */\n      swap3\n      pop\n        /* \"#utility.yul\":12940:12941   */\n      dup3\n        /* \"#utility.yul\":12872:12938   */\n      0xffffffffffffffffffffffffffffffffffffffffffffffffffffffffffffffff\n        /* \"#utility.yul\":12868:12942   */\n      sub\n        /* \"#utility.yul\":12865:12866   */\n      dup3\n        /* \"#utility.yul\":12862:12943   */\n      gt\n        /* \"#utility.yul\":12859:12966   */\n      iszero\n      tag_311\n      jumpi\n        /* \"#utility.yul\":12946:12964   */\n      tag_312\n      tag_182\n      jump\t// in\n    tag_312:\n        /* \"#utility.yul\":12859:12966   */\n    tag_311:\n        /* \"#utility.yul\":12990:12991   */\n      dup3\n        /* \"#utility.yul\":12987:12988   */\n      dup3\n        /* \"#utility.yul\":12983:12992   */\n      add\n        /* \"#utility.yul\":12976:12992   */\n      swap1\n      pop\n        /* \"#utility.yul\":12693:12998   */\n      swap3\n      swap2\n      pop\n      pop\n      jump\t// out\n        /* \"#utility.yul\":13004:13224   */\n    tag_193:\n        /* \"#utility.yul\":13144:13178   */\n      0x726571756573742068617320616c7265616479206265656e20617070726f7665\n        /* \"#utility.yul\":13140:13141   */\n      0x00\n        /* \"#utility.yul\":13132:13138   */\n      dup3\n        /* \"#utility.yul\":13128:13142   */\n      add\n        /* \"#utility.yul\":13121:13179   */\n      mstore\n        /* \"#utility.yul\":13213:13216   */\n      0x6400000000000000000000000000000000000000000000000000000000000000\n        /* \"#utility.yul\":13208:13210   */\n      0x20\n        /* \"#utility.yul\":13200:13206   */\n      dup3\n        /* \"#utility.yul\":13196:13211   */\n      add\n        /* \"#utility.yul\":13189:13217   */\n      mstore\n        /* \"#utility.yul\":13004:13224   */\n      pop\n      jump\t// out\n        /* \"#utility.yul\":13230:13596   */\n    tag_194:\n        /* \"#utility.yul\":13372:13375   */\n      0x00\n        /* \"#utility.yul\":13393:13460   */\n      tag_315\n        /* \"#utility.yul\":13457:13459   */\n      0x21\n        /* \"#utility.yul\":13452:13455   */\n      dup4\n        /* \"#utility.yul\":13393:13460   */\n      tag_173\n      jump\t// in\n    tag_315:\n        /* \"#utility.yul\":13386:13460   */\n      swap2\n      pop\n        /* \"#utility.yul\":13469:13562   */\n      tag_316\n        /* \"#utility.yul\":13558:13561   */\n      dup3\n        /* \"#utility.yul\":13469:13562   */\n      tag_193\n      jump\t// in\n    tag_316:\n        /* \"#utility.yul\":13587:13589   */\n      0x40\n        /* \"#utility.yul\":13582:13585   */\n      dup3\n        /* \"#utility.yul\":13578:13590   */\n      add\n        /* \"#utility.yul\":13571:13590   */\n      swap1\n      pop\n        /* \"#utility.yul\":13230:13596   */\n      swap2\n      swap1\n      pop\n      jump\t// out\n        /* \"#utility.yul\":13602:14021   */\n    tag_133:\n        /* \"#utility.yul\":13768:13772   */\n      0x00\n        /* \"#utility.yul\":13806:13808   */\n      0x20\n        /* \"#utility.yul\":13795:13804   */\n      dup3\n        /* \"#utility.yul\":13791:13809   */\n      add\n        /* \"#utility.yul\":13783:13809   */\n      swap1\n      pop\n        /* \"#utility.yul\":13855:13864   */\n      dup2\n        /* \"#utility.yul\":13849:13853   */\n      dup2\n        /* \"#utility.yul\":13845:13865   */\n      sub\n        /* \"#utility.yul\":13841:13842   */\n      0x00\n        /* \"#utility.yul\":13830:13839   */\n      dup4\n        /* \"#utility.yul\":13826:13843   */\n      add\n        /* \"#utility.yul\":13819:13866   */\n      mstore\n        /* \"#utility.yul\":13883:14014   */\n      tag_318\n        /* \"#utility.yul\":14009:14013   */\n      dup2\n        /* \"#utility.yul\":13883:14014   */\n      tag_194\n      jump\t// in\n    tag_318:\n        /* \"#utility.yul\":13875:14014   */\n      swap1\n      pop\n        /* \"#utility.yul\":13602:14021   */\n      swap2\n      swap1\n      pop\n      jump\t// out\n        /* \"#utility.yul\":14027:14199   */\n    tag_195:\n        /* \"#utility.yul\":14167:14191   */\n      0x6f6e6c79206f776e65722063616e20617070726f766500000000000000000000\n        /* \"#utility.yul\":14163:14164   */\n      0x00\n        /* \"#utility.yul\":14155:14161   */\n      dup3\n        /* \"#utility.yul\":14151:14165   */\n      add\n        /* \"#utility.yul\":14144:14192   */\n      mstore\n        /* \"#utility.yul\":14027:14199   */\n      pop\n      jump\t// out\n        /* \"#utility.yul\":14205:14571   */\n    tag_196:\n        /* \"#utility.yul\":14347:14350   */\n      0x00\n        /* \"#utility.yul\":14368:14435   */\n      tag_321\n        /* \"#utility.yul\":14432:14434   */\n      0x16\n        /* \"#utility.yul\":14427:14430   */\n      dup4\n        /* \"#utility.yul\":14368:14435   */\n      tag_173\n      jump\t// in\n    tag_321:\n        /* \"#utility.yul\":14361:14435   */\n      swap2\n      pop\n        /* \"#utility.yul\":14444:14537   */\n      tag_322\n        /* \"#utility.yul\":14533:14536   */\n      dup3\n        /* \"#utility.yul\":14444:14537   */\n      tag_195\n      jump\t// in\n    tag_322:\n        /* \"#utility.yul\":14562:14564   */\n      0x20\n        /* \"#utility.yul\":14557:14560   */\n      dup3\n        /* \"#utility.yul\":14553:14565   */\n      add\n        /* \"#utility.yul\":14546:14565   */\n      swap1\n      pop\n        /* \"#utility.yul\":14205:14571   */\n      swap2\n      swap1\n      pop\n      jump\t// out\n        /* \"#utility.yul\":14577:14996   */\n    tag_136:\n        /* \"#utility.yul\":14743:14747   */\n      0x00\n        /* \"#utility.yul\":14781:14783   */\n      0x20\n        /* \"#utility.yul\":14770:14779   */\n      dup3\n        /* \"#utility.yul\":14766:14784   */\n      add\n        /* \"#utility.yul\":14758:14784   */\n      swap1\n      pop\n        /* \"#utility.yul\":14830:14839   */\n      dup2\n        /* \"#utility.yul\":14824:14828   */\n      dup2\n        /* \"#utility.yul\":14820:14840   */\n      sub\n        /* \"#utility.yul\":14816:14817   */\n      0x00\n        /* \"#utility.yul\":14805:14814   */\n      dup4\n        /* \"#utility.yul\":14801:14818   */\n      add\n        /* \"#utility.yul\":14794:14841   */\n      mstore\n        /* \"#utility.yul\":14858:14989   */\n      tag_324\n        /* \"#utility.yul\":14984:14988   */\n      dup2\n        /* \"#utility.yul\":14858:14989   */\n      tag_196\n      jump\t// in\n    tag_324:\n        /* \"#utility.yul\":14850:14989   */\n      swap1\n      pop\n        /* \"#utility.yul\":14577:14996   */\n      swap2\n      swap1\n      pop\n      jump\t// out\n        /* \"#utility.yul\":15002:15168   */\n    tag_197:\n        /* \"#utility.yul\":15142:15160   */\n      0x616c726561647920617070726f76656400000000000000000000000000000000\n        /* \"#utility.yul\":15138:15139   */\n      0x00\n        /* \"#utility.yul\":15130:15136   */\n      dup3\n        /* \"#utility.yul\":15126:15140   */\n      add\n        /* \"#utility.yul\":15119:15161   */\n      mstore\n        /* \"#utility.yul\":15002:15168   */\n      pop\n      jump\t// out\n        /* \"#utility.yul\":15174:15540   */\n    tag_198:\n        /* \"#utility.yul\":15316:15319   */\n      0x00\n        /* \"#utility.yul\":15337:15404   */\n      tag_327\n        /* \"#utility.yul\":15401:15403   */\n      0x10\n        /* \"#utility.yul\":15396:15399   */\n      dup4\n        /* \"#utility.yul\":15337:15404   */\n      tag_173\n      jump\t// in\n    tag_327:\n        /* \"#utility.yul\":15330:15404   */\n      swap2\n      pop\n        /* \"#utility.yul\":15413:15506   */\n      tag_328\n        /* \"#utility.yul\":15502:15505   */\n      dup3\n        /* \"#utility.yul\":15413:15506   */\n      tag_197\n      jump\t// in\n    tag_328:\n        /* \"#utility.yul\":15531:15533   */\n      0x20\n        /* \"#utility.yul\":15526:15529   */\n      dup3\n        /* \"#utility.yul\":15522:15534   */\n      add\n        /* \"#utility.yul\":15515:15534   */\n      swap1\n      pop\n        /* \"#utility.yul\":15174:15540   */\n      swap2\n      swap1\n      pop\n      jump\t// out\n        /* \"#utility.yul\":15546:15965   */\n    tag_142:\n        /* \"#utility.yul\":15712:15716   */\n      0x00\n        /* \"#utility.yul\":15750:15752   */\n      0x20\n        /* \"#utility.yul\":15739:15748   */\n      dup3\n        /* \"#utility.yul\":15735:15753   */\n      add\n        /* \"#utility.yul\":15727:15753   */\n      swap1\n      pop\n        /* \"#utility.yul\":15799:15808   */\n      dup2\n        /* \"#utility.yul\":15793:15797   */\n      dup2\n        /* \"#utility.yul\":15789:15809   */\n      sub\n        /* \"#utility.yul\":15785:15786   */\n      0x00\n        /* \"#utility.yul\":15774:15783   */\n      dup4\n        /* \"#utility.yul\":15770:15787   */\n      add\n        /* \"#utility.yul\":15763:15810   */\n      mstore\n        /* \"#utility.yul\":15827:15958   */\n      tag_330\n        /* \"#utility.yul\":15953:15957   */\n      dup2\n        /* \"#utility.yul\":15827:15958   */\n      tag_198\n      jump\t// in\n    tag_330:\n        /* \"#utility.yul\":15819:15958   */\n      swap1\n      pop\n        /* \"#utility.yul\":15546:15965   */\n      swap2\n      swap1\n      pop\n      jump\t// out\n        /* \"#utility.yul\":15971:16191   */\n    tag_199:\n        /* \"#utility.yul\":16111:16145   */\n      0x63616e6e6f74207472616e73666572206f776e65727368697020746f2073656c\n        /* \"#utility.yul\":16107:16108   */\n      0x00\n        /* \"#utility.yul\":16099:16105   */\n      dup3\n        /* \"#utility.yul\":16095:16109   */\n      add\n        /* \"#utility.yul\":16088:16146   */\n      mstore\n        /* \"#utility.yul\":16180:16183   */\n      0x6600000000000000000000000000000000000000000000000000000000000000\n        /* \"#utility.yul\":16175:16177   */\n      0x20\n        /* \"#utility.yul\":16167:16173   */\n      dup3\n        /* \"#utility.yul\":16163:16178   */\n      add\n        /* \"#utility.yul\":16156:16184   */\n      mstore\n        /* \"#utility.yul\":15971:16191   */\n      pop\n      jump\t// out\n        /* \"#utility.yul\":16197:16563   */\n    tag_200:\n        /* \"#utility.yul\":16339:16342   */\n      0x00\n        /* \"#utility.yul\":16360:16427   */\n      tag_333\n        /* \"#utility.yul\":16424:16426   */\n      0x21\n        /* \"#utility.yul\":16419:16422   */\n      dup4\n        /* \"#utility.yul\":16360:16427   */\n      tag_173\n      jump\t// in\n    tag_333:\n        /* \"#utility.yul\":16353:16427   */\n      swap2\n      pop\n        /* \"#utility.yul\":16436:16529   */\n      tag_334\n        /* \"#utility.yul\":16525:16528   */\n      dup3\n        /* \"#utility.yul\":16436:16529   */\n      tag_199\n      jump\t// in\n    tag_334:\n        /* \"#utility.yul\":16554:16556   */\n      0x40\n        /* \"#utility.yul\":16549:16552   */\n      dup3\n        /* \"#utility.yul\":16545:16557   */\n      add\n        /* \"#utility.yul\":16538:16557   */\n      swap1\n      pop\n        /* \"#utility.yul\":16197:16563   */\n      swap2\n      swap1\n      pop\n      jump\t// out\n        /* \"#utility.yul\":16569:16988   */\n    tag_156:\n        /* \"#utility.yul\":16735:16739   */\n      0x00\n        /* \"#utility.yul\":16773:16775   */\n      0x20\n        /* \"#utility.yul\":16762:16771   */\n      dup3\n        /* \"#utility.yul\":16758:16776   */\n      add\n        /* \"#utility.yul\":16750:16776   */\n      swap1\n      pop\n        /* \"#utility.yul\":16822:16831   */\n      dup2\n        /* \"#utility.yul\":16816:16820   */\n      dup2\n        /* \"#utility.yul\":16812:16832   */\n      sub\n        /* \"#utility.yul\":16808:16809   */\n      0x00\n        /* \"#utility.yul\":16797:16806   */\n      dup4\n        /* \"#utility.yul\":16793:16810   */\n      add\n        /* \"#utility.yul\":16786:16833   */\n      mstore\n        /* \"#utility.yul\":16850:16981   */\n      tag_336\n        /* \"#utility.yul\":16976:16980   */\n      dup2\n        /* \"#utility.yul\":16850:16981   */\n      tag_200\n      jump\t// in\n    tag_336:\n        /* \"#utility.yul\":16842:16981   */\n      swap1\n      pop\n        /* \"#utility.yul\":16569:16988   */\n      swap2\n      swap1\n      pop\n      jump\t// out\n        /* \"#utility.yul\":16994:17222   */\n    tag_201:\n        /* \"#utility.yul\":17134:17168   */\n      0x63616e6e6f74207472616e73666572206f776e65727368697020746f206e756c\n        /* \"#utility.yul\":17130:17131   */\n      0x00\n        /* \"#utility.yul\":17122:17128   */\n      dup3\n        /* \"#utility.yul\":17118:17132   */\n      add\n        /* \"#utility.yul\":17111:17169   */\n      mstore\n        /* \"#utility.yul\":17203:17214   */\n      0x6c20616464726573730000000000000000000000000000000000000000000000\n        /* \"#utility.yul\":17198:17200   */\n      0x20\n        /* \"#utility.yul\":17190:17196   */\n      dup3\n        /* \"#utility.yul\":17186:17201   */\n      add\n        /* \"#utility.yul\":17179:17215   */\n      mstore\n        /* \"#utility.yul\":16994:17222   */\n      pop\n      jump\t// out\n        /* \"#utility.yul\":17228:17594   */\n    tag_202:\n        /* \"#utility.yul\":17370:17373   */\n      0x00\n        /* \"#utility.yul\":17391:17458   */\n      tag_339\n        /* \"#utility.yul\":17455:17457   */\n      0x29\n        /* \"#utility.yul\":17450:17453   */\n      dup4\n        /* \"#utility.yul\":17391:17458   */\n      tag_173\n      jump\t// in\n    tag_339:\n        /* \"#utility.yul\":17384:17458   */\n      swap2\n      pop\n        /* \"#utility.yul\":17467:17560   */\n      tag_340\n        /* \"#utility.yul\":17556:17559   */\n      dup3\n        /* \"#utility.yul\":17467:17560   */\n      tag_201\n      jump\t// in\n    tag_340:\n        /* \"#utility.yul\":17585:17587   */\n      0x40\n        /* \"#utility.yul\":17580:17583   */\n      dup3\n        /* \"#utility.yul\":17576:17588   */\n      add\n        /* \"#utility.yul\":17569:17588   */\n      swap1\n      pop\n        /* \"#utility.yul\":17228:17594   */\n      swap2\n      swap1\n      pop\n      jump\t// out\n        /* \"#utility.yul\":17600:18019   */\n    tag_159:\n        /* \"#utility.yul\":17766:17770   */\n      0x00\n        /* \"#utility.yul\":17804:17806   */\n      0x20\n        /* \"#utility.yul\":17793:17802   */\n      dup3\n        /* \"#utility.yul\":17789:17807   */\n      add\n        /* \"#utility.yul\":17781:17807   */\n      swap1\n      pop\n        /* \"#utility.yul\":17853:17862   */\n      dup2\n        /* \"#utility.yul\":17847:17851   */\n      dup2\n        /* \"#utility.yul\":17843:17863   */\n      sub\n        /* \"#utility.yul\":17839:17840   */\n      0x00\n        /* \"#utility.yul\":17828:17837   */\n      dup4\n        /* \"#utility.yul\":17824:17841   */\n      add\n        /* \"#utility.yul\":17817:17864   */\n      mstore\n        /* \"#utility.yul\":17881:18012   */\n      tag_342\n        /* \"#utility.yul\":18007:18011   */\n      dup2\n        /* \"#utility.yul\":17881:18012   */\n      tag_202\n      jump\t// in\n    tag_342:\n        /* \"#utility.yul\":17873:18012   */\n      swap1\n      pop\n        /* \"#utility.yul\":17600:18019   */\n      swap2\n      swap1\n      pop\n      jump\t// out\n\n    auxdata: 0xa26469706673582212200498edf60a13092de77bacde0aa50d7bd17755c6ba734b026355d7d8a940d9f064736f6c634300080a0033\n}\n","bytecode":{"linkReferences":{},"object":"608060405234801561001057600080fd5b50336000806101000a81548173ffffffffffffffffffffffffffffffffffffffff021916908373ffffffffffffffffffffffffffffffffffffffff160217905550611947806100606000396000f3fe608060405234801561001057600080fd5b50600436106100935760003560e01c80637065cb48116100665780637065cb481461013057806374899a7e1461014c5780638da5cb5b14610168578063b759f95414610186578063f2fde38b146101a257610093565b8063025e7c27146100985780632e1a7d4d146100c85780632f54bf6e146100e45780636b91948814610114575b600080fd5b6100b260048036038101906100ad9190610fe7565b6101be565b6040516100bf9190611055565b60405180910390f35b6100e260048036038101906100dd9190610fe7565b6101fd565b005b6100fe60048036038101906100f9919061109c565b610406565b60405161010b91906110e4565b60405180910390f35b61012e60048036038101906101299190610fe7565b610426565b005b61014a6004803603810190610145919061109c565b6106a6565b005b61016660048036038101906101619190610fe7565b610996565b005b610170610b0d565b60405161017d9190611055565b60405180910390f35b6101a0600480360381019061019b9190610fe7565b610b31565b005b6101bc60048036038101906101b7919061109c565b610ddc565b005b600181815481106101ce57600080fd5b906000526020600020016000915054906101000a900473ffffffffffffffffffffffffffffffffffffffff1681565b6004805490508110610244576040517f08c379a000000000000000000000000000000000000000000000000000000000815260040161023b9061115c565b60405180910390fd5b600481815481106102585761025761117c565b5b906000526020600020906003020160020160003373ffffffffffffffffffffffffffffffffffffffff1673ffffffffffffffffffffffffffffffffffffffff16815260200190815260200160002060009054906101000a900460ff166102f3576040517f08c379a00000000000000000000000000000000000000000000000000000000081526004016102ea9061121d565b60405180910390fd5b6003546004828154811061030a5761030961117c565b5b9060005260206000209060030201600101541461035c576040517f08c379a000000000000000000000000000000000000000000000000000000000815260040161035390611289565b60405180910390fd5b6000600482815481106103725761037161117c565b5b90600052602060002090600302016000015490506004828154811061039a5761039961117c565b5b9060005260206000209060030201600080820160009055600182016000905550503373ffffffffffffffffffffffffffffffffffffffff166108fc829081150290604051600060405180830381858888f19350505050158015610401573d6000803e3d6000fd5b505050565b60026020528060005260406000206000915054906101000a900460ff1681565b60008054906101000a900473ffffffffffffffffffffffffffffffffffffffff1673ffffffffffffffffffffffffffffffffffffffff163373ffffffffffffffffffffffffffffffffffffffff16146104b4576040517f08c379a00000000000000000000000000000000000000000000000000000000081526004016104ab906112f5565b60405180910390fd5b60018054905081106104fb576040517f08c379a00000000000000000000000000000000000000000000000000000000081526004016104f29061115c565b60405180910390fd5b600180808054905061050d9190611344565b8154811061051e5761051d61117c565b5b9060005260206000200160009054906101000a900473ffffffffffffffffffffffffffffffffffffffff166001828154811061055d5761055c61117c565b5b9060005260206000200160006101000a81548173ffffffffffffffffffffffffffffffffffffffff021916908373ffffffffffffffffffffffffffffffffffffffff16021790555060018080805490506105b79190611344565b815481106105c8576105c761117c565b5b9060005260206000200160006101000a81549073ffffffffffffffffffffffffffffffffffffffff02191690556000600260006001848154811061060f5761060e61117c565b5b9060005260206000200160009054906101000a900473ffffffffffffffffffffffffffffffffffffffff1673ffffffffffffffffffffffffffffffffffffffff1673ffffffffffffffffffffffffffffffffffffffff16815260200190815260200160002060006101000a81548160ff0219169083151502179055506003600081548092919061069e90611378565b919050555050565b60008054906101000a900473ffffffffffffffffffffffffffffffffffffffff1673ffffffffffffffffffffffffffffffffffffffff163373ffffffffffffffffffffffffffffffffffffffff1614610734576040517f08c379a000000000000000000000000000000000000000000000000000000000815260040161072b906112f5565b60405180910390fd5b60008054906101000a900473ffffffffffffffffffffffffffffffffffffffff1673ffffffffffffffffffffffffffffffffffffffff168173ffffffffffffffffffffffffffffffffffffffff1614156107c3576040517f08c379a00000000000000000000000000000000000000000000000000000000081526004016107ba90611414565b60405180910390fd5b600073ffffffffffffffffffffffffffffffffffffffff168173ffffffffffffffffffffffffffffffffffffffff161415610833576040517f08c379a000000000000000000000000000000000000000000000000000000000815260040161082a90611480565b60405180910390fd5b600260008273ffffffffffffffffffffffffffffffffffffffff1673ffffffffffffffffffffffffffffffffffffffff16815260200190815260200160002060009054906101000a900460ff16156108c0576040517f08c379a00000000000000000000000000000000000000000000000000000000081526004016108b7906114ec565b60405180910390fd5b6001819080600181540180825580915050600190039060005260206000200160009091909190916101000a81548173ffffffffffffffffffffffffffffffffffffffff021916908373ffffffffffffffffffffffffffffffffffffffff1602179055506001600260008373ffffffffffffffffffffffffffffffffffffffff1673ffffffffffffffffffffffffffffffffffffffff16815260200190815260200160002060006101000a81548160ff0219169083151502179055506003600081548092919061098e9061150c565b919050555050565b600081116109d9576040517f08c379a00000000000000000000000000000000000000000000000000000000081526004016109d0906115a1565b60405180910390fd5b600260003373ffffffffffffffffffffffffffffffffffffffff1673ffffffffffffffffffffffffffffffffffffffff16815260200190815260200160002060009054906101000a900460ff16610a65576040517f08c379a0000000000000000000000000000000000000000000000000000000008152600401610a5c9061160d565b60405180910390fd5b600060046001600480549050610a7b919061162d565b81548110610a8c57610a8b61117c565b5b906000526020600020906003020190508181600001819055506000816001018190555060018160020160003373ffffffffffffffffffffffffffffffffffffffff1673ffffffffffffffffffffffffffffffffffffffff16815260200190815260200160002060006101000a81548160ff0219169083151502179055505050565b60008054906101000a900473ffffffffffffffffffffffffffffffffffffffff1681565b6004805490508110610b78576040517f08c379a0000000000000000000000000000000000000000000000000000000008152600401610b6f9061115c565b60405180910390fd5b60035460048281548110610b8f57610b8e61117c565b5b90600052602060002090600302016001015410610be1576040517f08c379a0000000000000000000000000000000000000000000000000000000008152600401610bd8906116f5565b60405180910390fd5b600260003373ffffffffffffffffffffffffffffffffffffffff1673ffffffffffffffffffffffffffffffffffffffff16815260200190815260200160002060009054906101000a900460ff16610c6d576040517f08c379a0000000000000000000000000000000000000000000000000000000008152600401610c6490611761565b60405180910390fd5b6000151560048281548110610c8557610c8461117c565b5b906000526020600020906003020160020160003373ffffffffffffffffffffffffffffffffffffffff1673ffffffffffffffffffffffffffffffffffffffff16815260200190815260200160002060009054906101000a900460ff16151514610d23576040517f08c379a0000000000000000000000000000000000000000000000000000000008152600401610d1a906117cd565b60405180910390fd5b60048181548110610d3757610d3661117c565b5b90600052602060002090600302016001016000815480929190610d599061150c565b9190505550600160048281548110610d7457610d7361117c565b5b906000526020600020906003020160020160003373ffffffffffffffffffffffffffffffffffffffff1673ffffffffffffffffffffffffffffffffffffffff16815260200190815260200160002060006101000a81548160ff02191690831515021790555050565b60008054906101000a900473ffffffffffffffffffffffffffffffffffffffff1673ffffffffffffffffffffffffffffffffffffffff163373ffffffffffffffffffffffffffffffffffffffff1614610e6a576040517f08c379a0000000000000000000000000000000000000000000000000000000008152600401610e61906112f5565b60405180910390fd5b60008054906101000a900473ffffffffffffffffffffffffffffffffffffffff1673ffffffffffffffffffffffffffffffffffffffff168173ffffffffffffffffffffffffffffffffffffffff161415610ef9576040517f08c379a0000000000000000000000000000000000000000000000000000000008152600401610ef09061185f565b60405180910390fd5b600073ffffffffffffffffffffffffffffffffffffffff168173ffffffffffffffffffffffffffffffffffffffff161415610f69576040517f08c379a0000000000000000000000000000000000000000000000000000000008152600401610f60906118f1565b60405180910390fd5b806000806101000a81548173ffffffffffffffffffffffffffffffffffffffff021916908373ffffffffffffffffffffffffffffffffffffffff16021790555050565b600080fd5b6000819050919050565b610fc481610fb1565b8114610fcf57600080fd5b50565b600081359050610fe181610fbb565b92915050565b600060208284031215610ffd57610ffc610fac565b5b600061100b84828501610fd2565b91505092915050565b600073ffffffffffffffffffffffffffffffffffffffff82169050919050565b600061103f82611014565b9050919050565b61104f81611034565b82525050565b600060208201905061106a6000830184611046565b92915050565b61107981611034565b811461108457600080fd5b50565b60008135905061109681611070565b92915050565b6000602082840312156110b2576110b1610fac565b5b60006110c084828501611087565b91505092915050565b60008115159050919050565b6110de816110c9565b82525050565b60006020820190506110f960008301846110d5565b92915050565b600082825260208201905092915050565b7f696e646578206f7574206f6620626f756e647300000000000000000000000000600082015250565b60006111466013836110ff565b915061115182611110565b602082019050919050565b6000602082019050818103600083015261117581611139565b9050919050565b7f4e487b7100000000000000000000000000000000000000000000000000000000600052603260045260246000fd5b7f6f6e6c7920617070726f766564206f776e6572732063616e207769746864726160008201527f7700000000000000000000000000000000000000000000000000000000000000602082015250565b60006112076021836110ff565b9150611212826111ab565b604082019050919050565b60006020820190508181036000830152611236816111fa565b9050919050565b7f6e6f7420616c6c206f776e657273206861766520617070726f76656400000000600082015250565b6000611273601c836110ff565b915061127e8261123d565b602082019050919050565b600060208201905081810360008301526112a281611266565b9050919050565b7f6f6e6c79206f776e657200000000000000000000000000000000000000000000600082015250565b60006112df600a836110ff565b91506112ea826112a9565b602082019050919050565b6000602082019050818103600083015261130e816112d2565b9050919050565b7f4e487b7100000000000000000000000000000000000000000000000000000000600052601160045260246000fd5b600061134f82610fb1565b915061135a83610fb1565b92508282101561136d5761136c611315565b5b828203905092915050565b600061138382610fb1565b9150600082141561139757611396611315565b5b600182039050919050565b7f63616e6e6f742061646420636f6e7472616374206f776e657220746f206c697360008201527f7400000000000000000000000000000000000000000000000000000000000000602082015250565b60006113fe6021836110ff565b9150611409826113a2565b604082019050919050565b6000602082019050818103600083015261142d816113f1565b9050919050565b7f63616e6e6f7420616464206e756c6c206164647265737320746f206c69737400600082015250565b600061146a601f836110ff565b915061147582611434565b602082019050919050565b600060208201905081810360008301526114998161145d565b9050919050565b7f6164647265737320616c72656164792065786973747320696e206c6973740000600082015250565b60006114d6601e836110ff565b91506114e1826114a0565b602082019050919050565b60006020820190508181036000830152611505816114c9565b9050919050565b600061151782610fb1565b91507fffffffffffffffffffffffffffffffffffffffffffffffffffffffffffffffff82141561154a57611549611315565b5b600182019050919050565b7f616d6f756e74206d7573742062652067726561746572207468616e2030000000600082015250565b600061158b601d836110ff565b915061159682611555565b602082019050919050565b600060208201905081810360008301526115ba8161157e565b9050919050565b7f6f6e6c79206f776e65722063616e207769746864726177000000000000000000600082015250565b60006115f76017836110ff565b9150611602826115c1565b602082019050919050565b60006020820190508181036000830152611626816115ea565b9050919050565b600061163882610fb1565b915061164383610fb1565b9250827fffffffffffffffffffffffffffffffffffffffffffffffffffffffffffffffff0382111561167857611677611315565b5b828201905092915050565b7f726571756573742068617320616c7265616479206265656e20617070726f766560008201527f6400000000000000000000000000000000000000000000000000000000000000602082015250565b60006116df6021836110ff565b91506116ea82611683565b604082019050919050565b6000602082019050818103600083015261170e816116d2565b9050919050565b7f6f6e6c79206f776e65722063616e20617070726f766500000000000000000000600082015250565b600061174b6016836110ff565b915061175682611715565b602082019050919050565b6000602082019050818103600083015261177a8161173e565b9050919050565b7f616c726561647920617070726f76656400000000000000000000000000000000600082015250565b60006117b76010836110ff565b91506117c282611781565b602082019050919050565b600060208201905081810360008301526117e6816117aa565b9050919050565b7f63616e6e6f74207472616e73666572206f776e65727368697020746f2073656c60008201527f6600000000000000000000000000000000000000000000000000000000000000602082015250565b60006118496021836110ff565b9150611854826117ed565b604082019050919050565b600060208201905081810360008301526118788161183c565b9050919050565b7f63616e6e6f74207472616e73666572206f776e65727368697020746f206e756c60008201527f6c20616464726573730000000000000000000000000000000000000000000000602082015250565b60006118db6029836110ff565b91506118e68261187f565b604082019050919050565b6000602082019050818103600083015261190a816118ce565b905091905056fea26469706673582212200498edf60a13092de77bacde0aa50d7bd17755c6ba734b026355d7d8a940d9f064736f6c634300080a0033","opcodes":"PUSH1 0x80 PUSH1 0x40 MSTORE CALLVALUE DUP1 ISZERO PUSH2 0x10 JUMPI PUSH1 0x0 DUP1 REVERT JUMPDEST POP CALLER PUSH1 0x0 DUP1 PUSH2 0x100 EXP DUP2 SLOAD DUP2 PUSH20 0xFFFFFFFFFFFFFFFFFFFFFFFFFFFFFFFFFFFFFFFF MUL NOT AND SWAP1 DUP4 PUSH20 0xFFFFFFFFFFFFFFFFFFFFFFFFFFFFFFFFFFFFFFFF AND MUL OR SWAP1 SSTORE POP PUSH2 0x1947 DUP1 PUSH2 0x60 PUSH1 0x0 CODECOPY PUSH1 0x0 RETURN INVALID PUSH1 0x80 PUSH1 0x40 MSTORE CALLVALUE DUP1 ISZERO PUSH2 0x10 JUMPI PUSH1 0x0 DUP1 REVERT JUMPDEST POP PUSH1 0x4 CALLDATASIZE LT PUSH2 0x93 JUMPI PUSH1 0x0 CALLDATALOAD PUSH1 0xE0 SHR DUP1 PUSH4 0x7065CB48 GT PUSH2 0x66 JUMPI DUP1 PUSH4 0x7065CB48 EQ PUSH2 0x130 JUMPI DUP1 PUSH4 0x74899A7E EQ PUSH2 0x14C JUMPI DUP1 PUSH4 0x8DA5CB5B EQ PUSH2 0x168 JUMPI DUP1 PUSH4 0xB759F954 EQ PUSH2 0x186 JUMPI DUP1 PUSH4 0xF2FDE38B EQ PUSH2 0x1A2 JUMPI PUSH2 0x93 JUMP JUMPDEST DUP1 PUSH4 0x25E7C27 EQ PUSH2 0x98 JUMPI DUP1 PUSH4 0x2E1A7D4D EQ PUSH2 0xC8 JUMPI DUP1 PUSH4 0x2F54BF6E EQ PUSH2 0xE4 JUMPI DUP1 PUSH4 0x6B919488 EQ PUSH2 0x114 JUMPI JUMPDEST PUSH1 0x0 DUP1 REVERT JUMPDEST PUSH2 0xB2 PUSH1 0x4 DUP1 CALLDATASIZE SUB DUP2 ADD SWAP1 PUSH2 0xAD SWAP2 SWAP1 PUSH2 0xFE7 JUMP JUMPDEST PUSH2 0x1BE JUMP JUMPDEST PUSH1 0x40 MLOAD PUSH2 0xBF SWAP2 SWAP1 PUSH2 0x1055 JUMP JUMPDEST PUSH1 0x40 MLOAD DUP1 SWAP2 SUB SWAP1 RETURN JUMPDEST PUSH2 0xE2 PUSH1 0x4 DUP1 CALLDATASIZE SUB DUP2 ADD SWAP1 PUSH2 0xDD SWAP2 SWAP1 PUSH2 0xFE7 JUMP JUMPDEST PUSH2 0x1FD JUMP JUMPDEST STOP JUMPDEST PUSH2 0xFE PUSH1 0x4 DUP1 CALLDATASIZE SUB DUP2 ADD SWAP1 PUSH2 0xF9 SWAP2 SWAP1 PUSH2 0x109C JUMP JUMPDEST PUSH2 0x406 JUMP JUMPDEST PUSH1 0x40 MLOAD PUSH2 0x10B SWAP2 SWAP1 PUSH2 0x10E4 JUMP JUMPDEST PUSH1 0x40 MLOAD DUP1 SWAP2 SUB SWAP1 RETURN JUMPDEST PUSH2 0x12E PUSH1 0x4 DUP1 CALLDATASIZE SUB DUP2 ADD SWAP1 PUSH2 0x129 SWAP2 SWAP1 PUSH2 0xFE7 JUMP JUMPDEST PUSH2 0x426 JUMP JUMPDEST STOP JUMPDEST PUSH2 0x14A PUSH1 0x4 DUP1 CALLDATASIZE SUB DUP2 ADD SWAP1 PUSH2 0x145 SWAP2 SWAP1 PUSH2 0x109C JUMP JUMPDEST PUSH2 0x6A6 JUMP JUMPDEST STOP JUMPDEST PUSH2 0x166 PUSH1 0x4 DUP1 CALLDATASIZE SUB DUP2 ADD SWAP1 PUSH2 0x161 SWAP2 SWAP1 PUSH2 0xFE7 JUMP JUMPDEST PUSH2 0x996 JUMP JUMPDEST STOP JUMPDEST PUSH2 0x170 PUSH2 0xB0D JUMP JUMPDEST PUSH1 0x40 MLOAD PUSH2 0x17D SWAP2 SWAP1 PUSH2 0x1055 JUMP JUMPDEST PUSH1 0x40 MLOAD DUP1 SWAP2 SUB SWAP1 RETURN JUMPDEST PUSH2 0x1A0 PUSH1 0x4 DUP1 CALLDATASIZE SUB DUP2 ADD SWAP1 PUSH2 0x19B SWAP2 SWAP1 PUSH2 0xFE7 JUMP JUMPDEST PUSH2 0xB31 JUMP JUMPDEST STOP JUMPDEST PUSH2 0x1BC PUSH1 0x4 DUP1 CALLDATASIZE SUB DUP2 ADD SWAP1 PUSH2 0x1B7 SWAP2 SWAP1 PUSH2 0x109C JUMP JUMPDEST PUSH2 0xDDC JUMP JUMPDEST STOP JUMPDEST PUSH1 0x1 DUP2 DUP2 SLOAD DUP2 LT PUSH2 0x1CE JUMPI PUSH1 0x0 DUP1 REVERT JUMPDEST SWAP1 PUSH1 0x0 MSTORE PUSH1 0x20 PUSH1 0x0 KECCAK256 ADD PUSH1 0x0 SWAP2 POP SLOAD SWAP1 PUSH2 0x100 EXP SWAP1 DIV PUSH20 0xFFFFFFFFFFFFFFFFFFFFFFFFFFFFFFFFFFFFFFFF AND DUP2 JUMP JUMPDEST PUSH1 0x4 DUP1 SLOAD SWAP1 POP DUP2 LT PUSH2 0x244 JUMPI PUSH1 0x40 MLOAD PUSH32 0x8C379A000000000000000000000000000000000000000000000000000000000 DUP2 MSTORE PUSH1 0x4 ADD PUSH2 0x23B SWAP1 PUSH2 0x115C JUMP JUMPDEST PUSH1 0x40 MLOAD DUP1 SWAP2 SUB SWAP1 REVERT JUMPDEST PUSH1 0x4 DUP2 DUP2 SLOAD DUP2 LT PUSH2 0x258 JUMPI PUSH2 0x257 PUSH2 0x117C JUMP JUMPDEST JUMPDEST SWAP1 PUSH1 0x0 MSTORE PUSH1 0x20 PUSH1 0x0 KECCAK256 SWAP1 PUSH1 0x3 MUL ADD PUSH1 0x2 ADD PUSH1 0x0 CALLER PUSH20 0xFFFFFFFFFFFFFFFFFFFFFFFFFFFFFFFFFFFFFFFF AND PUSH20 0xFFFFFFFFFFFFFFFFFFFFFFFFFFFFFFFFFFFFFFFF AND DUP2 MSTORE PUSH1 0x20 ADD SWAP1 DUP2 MSTORE PUSH1 0x20 ADD PUSH1 0x0 KECCAK256 PUSH1 0x0 SWAP1 SLOAD SWAP1 PUSH2 0x100 EXP SWAP1 DIV PUSH1 0xFF AND PUSH2 0x2F3 JUMPI PUSH1 0x40 MLOAD PUSH32 0x8C379A000000000000000000000000000000000000000000000000000000000 DUP2 MSTORE PUSH1 0x4 ADD PUSH2 0x2EA SWAP1 PUSH2 0x121D JUMP JUMPDEST PUSH1 0x40 MLOAD DUP1 SWAP2 SUB SWAP1 REVERT JUMPDEST PUSH1 0x3 SLOAD PUSH1 0x4 DUP3 DUP2 SLOAD DUP2 LT PUSH2 0x30A JUMPI PUSH2 0x309 PUSH2 0x117C JUMP JUMPDEST JUMPDEST SWAP1 PUSH1 0x0 MSTORE PUSH1 0x20 PUSH1 0x0 KECCAK256 SWAP1 PUSH1 0x3 MUL ADD PUSH1 0x1 ADD SLOAD EQ PUSH2 0x35C JUMPI PUSH1 0x40 MLOAD PUSH32 0x8C379A000000000000000000000000000000000000000000000000000000000 DUP2 MSTORE PUSH1 0x4 ADD PUSH2 0x353 SWAP1 PUSH2 0x1289 JUMP JUMPDEST PUSH1 0x40 MLOAD DUP1 SWAP2 SUB SWAP1 REVERT JUMPDEST PUSH1 0x0 PUSH1 0x4 DUP3 DUP2 SLOAD DUP2 LT PUSH2 0x372 JUMPI PUSH2 0x371 PUSH2 0x117C JUMP JUMPDEST JUMPDEST SWAP1 PUSH1 0x0 MSTORE PUSH1 0x20 PUSH1 0x0 KECCAK256 SWAP1 PUSH1 0x3 MUL ADD PUSH1 0x0 ADD SLOAD SWAP1 POP PUSH1 0x4 DUP3 DUP2 SLOAD DUP2 LT PUSH2 0x39A JUMPI PUSH2 0x399 PUSH2 0x117C JUMP JUMPDEST JUMPDEST SWAP1 PUSH1 0x0 MSTORE PUSH1 0x20 PUSH1 0x0 KECCAK256 SWAP1 PUSH1 0x3 MUL ADD PUSH1 0x0 DUP1 DUP3 ADD PUSH1 0x0 SWAP1 SSTORE PUSH1 0x1 DUP3 ADD PUSH1 0x0 SWAP1 SSTORE POP POP CALLER PUSH20 0xFFFFFFFFFFFFFFFFFFFFFFFFFFFFFFFFFFFFFFFF AND PUSH2 0x8FC DUP3 SWAP1 DUP2 ISZERO MUL SWAP1 PUSH1 0x40 MLOAD PUSH1 0x0 PUSH1 0x40 MLOAD DUP1 DUP4 SUB DUP2 DUP6 DUP9 DUP9 CALL SWAP4 POP POP POP POP ISZERO DUP1 ISZERO PUSH2 0x401 JUMPI RETURNDATASIZE PUSH1 0x0 DUP1 RETURNDATACOPY RETURNDATASIZE PUSH1 0x0 REVERT JUMPDEST POP POP POP JUMP JUMPDEST PUSH1 0x2 PUSH1 0x20 MSTORE DUP1 PUSH1 0x0 MSTORE PUSH1 0x40 PUSH1 0x0 KECCAK256 PUSH1 0x0 SWAP2 POP SLOAD SWAP1 PUSH2 0x100 EXP SWAP1 DIV PUSH1 0xFF AND DUP2 JUMP JUMPDEST PUSH1 0x0 DUP1 SLOAD SWAP1 PUSH2 0x100 EXP SWAP1 DIV PUSH20 0xFFFFFFFFFFFFFFFFFFFFFFFFFFFFFFFFFFFFFFFF AND PUSH20 0xFFFFFFFFFFFFFFFFFFFFFFFFFFFFFFFFFFFFFFFF AND CALLER PUSH20 0xFFFFFFFFFFFFFFFFFFFFFFFFFFFFFFFFFFFFFFFF AND EQ PUSH2 0x4B4 JUMPI PUSH1 0x40 MLOAD PUSH32 0x8C379A000000000000000000000000000000000000000000000000000000000 DUP2 MSTORE PUSH1 0x4 ADD PUSH2 0x4AB SWAP1 PUSH2 0x12F5 JUMP JUMPDEST PUSH1 0x40 MLOAD DUP1 SWAP2 SUB SWAP1 REVERT JUMPDEST PUSH1 0x1 DUP1 SLOAD SWAP1 POP DUP2 LT PUSH2 0x4FB JUMPI PUSH1 0x40 MLOAD PUSH32 0x8C379A000000000000000000000000000000000000000000000000000000000 DUP2 MSTORE PUSH1 0x4 ADD PUSH2 0x4F2 SWAP1 PUSH2 0x115C JUMP JUMPDEST PUSH1 0x40 MLOAD DUP1 SWAP2 SUB SWAP1 REVERT JUMPDEST PUSH1 0x1 DUP1 DUP1 DUP1 SLOAD SWAP1 POP PUSH2 0x50D SWAP2 SWAP1 PUSH2 0x1344 JUMP JUMPDEST DUP2 SLOAD DUP2 LT PUSH2 0x51E JUMPI PUSH2 0x51D PUSH2 0x117C JUMP JUMPDEST JUMPDEST SWAP1 PUSH1 0x0 MSTORE PUSH1 0x20 PUSH1 0x0 KECCAK256 ADD PUSH1 0x0 SWAP1 SLOAD SWAP1 PUSH2 0x100 EXP SWAP1 DIV PUSH20 0xFFFFFFFFFFFFFFFFFFFFFFFFFFFFFFFFFFFFFFFF AND PUSH1 0x1 DUP3 DUP2 SLOAD DUP2 LT PUSH2 0x55D JUMPI PUSH2 0x55C PUSH2 0x117C JUMP JUMPDEST JUMPDEST SWAP1 PUSH1 0x0 MSTORE PUSH1 0x20 PUSH1 0x0 KECCAK256 ADD PUSH1 0x0 PUSH2 0x100 EXP DUP2 SLOAD DUP2 PUSH20 0xFFFFFFFFFFFFFFFFFFFFFFFFFFFFFFFFFFFFFFFF MUL NOT AND SWAP1 DUP4 PUSH20 0xFFFFFFFFFFFFFFFFFFFFFFFFFFFFFFFFFFFFFFFF AND MUL OR SWAP1 SSTORE POP PUSH1 0x1 DUP1 DUP1 DUP1 SLOAD SWAP1 POP PUSH2 0x5B7 SWAP2 SWAP1 PUSH2 0x1344 JUMP JUMPDEST DUP2 SLOAD DUP2 LT PUSH2 0x5C8 JUMPI PUSH2 0x5C7 PUSH2 0x117C JUMP JUMPDEST JUMPDEST SWAP1 PUSH1 0x0 MSTORE PUSH1 0x20 PUSH1 0x0 KECCAK256 ADD PUSH1 0x0 PUSH2 0x100 EXP DUP2 SLOAD SWAP1 PUSH20 0xFFFFFFFFFFFFFFFFFFFFFFFFFFFFFFFFFFFFFFFF MUL NOT AND SWAP1 SSTORE PUSH1 0x0 PUSH1 0x2 PUSH1 0x0 PUSH1 0x1 DUP5 DUP2 SLOAD DUP2 LT PUSH2 0x60F JUMPI PUSH2 0x60E PUSH2 0x117C JUMP JUMPDEST JUMPDEST SWAP1 PUSH1 0x0 MSTORE PUSH1 0x20 PUSH1 0x0 KECCAK256 ADD PUSH1 0x0 SWAP1 SLOAD SWAP1 PUSH2 0x100 EXP SWAP1 DIV PUSH20 0xFFFFFFFFFFFFFFFFFFFFFFFFFFFFFFFFFFFFFFFF AND PUSH20 0xFFFFFFFFFFFFFFFFFFFFFFFFFFFFFFFFFFFFFFFF AND PUSH20 0xFFFFFFFFFFFFFFFFFFFFFFFFFFFFFFFFFFFFFFFF AND DUP2 MSTORE PUSH1 0x20 ADD SWAP1 DUP2 MSTORE PUSH1 0x20 ADD PUSH1 0x0 KECCAK256 PUSH1 0x0 PUSH2 0x100 EXP DUP2 SLOAD DUP2 PUSH1 0xFF MUL NOT AND SWAP1 DUP4 ISZERO ISZERO MUL OR SWAP1 SSTORE POP PUSH1 0x3 PUSH1 0x0 DUP2 SLOAD DUP1 SWAP3 SWAP2 SWAP1 PUSH2 0x69E SWAP1 PUSH2 0x1378 JUMP JUMPDEST SWAP2 SWAP1 POP SSTORE POP POP JUMP JUMPDEST PUSH1 0x0 DUP1 SLOAD SWAP1 PUSH2 0x100 EXP SWAP1 DIV PUSH20 0xFFFFFFFFFFFFFFFFFFFFFFFFFFFFFFFFFFFFFFFF AND PUSH20 0xFFFFFFFFFFFFFFFFFFFFFFFFFFFFFFFFFFFFFFFF AND CALLER PUSH20 0xFFFFFFFFFFFFFFFFFFFFFFFFFFFFFFFFFFFFFFFF AND EQ PUSH2 0x734 JUMPI PUSH1 0x40 MLOAD PUSH32 0x8C379A000000000000000000000000000000000000000000000000000000000 DUP2 MSTORE PUSH1 0x4 ADD PUSH2 0x72B SWAP1 PUSH2 0x12F5 JUMP JUMPDEST PUSH1 0x40 MLOAD DUP1 SWAP2 SUB SWAP1 REVERT JUMPDEST PUSH1 0x0 DUP1 SLOAD SWAP1 PUSH2 0x100 EXP SWAP1 DIV PUSH20 0xFFFFFFFFFFFFFFFFFFFFFFFFFFFFFFFFFFFFFFFF AND PUSH20 0xFFFFFFFFFFFFFFFFFFFFFFFFFFFFFFFFFFFFFFFF AND DUP2 PUSH20 0xFFFFFFFFFFFFFFFFFFFFFFFFFFFFFFFFFFFFFFFF AND EQ ISZERO PUSH2 0x7C3 JUMPI PUSH1 0x40 MLOAD PUSH32 0x8C379A000000000000000000000000000000000000000000000000000000000 DUP2 MSTORE PUSH1 0x4 ADD PUSH2 0x7BA SWAP1 PUSH2 0x1414 JUMP JUMPDEST PUSH1 0x40 MLOAD DUP1 SWAP2 SUB SWAP1 REVERT JUMPDEST PUSH1 0x0 PUSH20 0xFFFFFFFFFFFFFFFFFFFFFFFFFFFFFFFFFFFFFFFF AND DUP2 PUSH20 0xFFFFFFFFFFFFFFFFFFFFFFFFFFFFFFFFFFFFFFFF AND EQ ISZERO PUSH2 0x833 JUMPI PUSH1 0x40 MLOAD PUSH32 0x8C379A000000000000000000000000000000000000000000000000000000000 DUP2 MSTORE PUSH1 0x4 ADD PUSH2 0x82A SWAP1 PUSH2 0x1480 JUMP JUMPDEST PUSH1 0x40 MLOAD DUP1 SWAP2 SUB SWAP1 REVERT JUMPDEST PUSH1 0x2 PUSH1 0x0 DUP3 PUSH20 0xFFFFFFFFFFFFFFFFFFFFFFFFFFFFFFFFFFFFFFFF AND PUSH20 0xFFFFFFFFFFFFFFFFFFFFFFFFFFFFFFFFFFFFFFFF AND DUP2 MSTORE PUSH1 0x20 ADD SWAP1 DUP2 MSTORE PUSH1 0x20 ADD PUSH1 0x0 KECCAK256 PUSH1 0x0 SWAP1 SLOAD SWAP1 PUSH2 0x100 EXP SWAP1 DIV PUSH1 0xFF AND ISZERO PUSH2 0x8C0 JUMPI PUSH1 0x40 MLOAD PUSH32 0x8C379A000000000000000000000000000000000000000000000000000000000 DUP2 MSTORE PUSH1 0x4 ADD PUSH2 0x8B7 SWAP1 PUSH2 0x14EC JUMP JUMPDEST PUSH1 0x40 MLOAD DUP1 SWAP2 SUB SWAP1 REVERT JUMPDEST PUSH1 0x1 DUP2 SWAP1 DUP1 PUSH1 0x1 DUP2 SLOAD ADD DUP1 DUP3 SSTORE DUP1 SWAP2 POP POP PUSH1 0x1 SWAP1 SUB SWAP1 PUSH1 0x0 MSTORE PUSH1 0x20 PUSH1 0x0 KECCAK256 ADD PUSH1 0x0 SWAP1 SWAP2 SWAP1 SWAP2 SWAP1 SWAP2 PUSH2 0x100 EXP DUP2 SLOAD DUP2 PUSH20 0xFFFFFFFFFFFFFFFFFFFFFFFFFFFFFFFFFFFFFFFF MUL NOT AND SWAP1 DUP4 PUSH20 0xFFFFFFFFFFFFFFFFFFFFFFFFFFFFFFFFFFFFFFFF AND MUL OR SWAP1 SSTORE POP PUSH1 0x1 PUSH1 0x2 PUSH1 0x0 DUP4 PUSH20 0xFFFFFFFFFFFFFFFFFFFFFFFFFFFFFFFFFFFFFFFF AND PUSH20 0xFFFFFFFFFFFFFFFFFFFFFFFFFFFFFFFFFFFFFFFF AND DUP2 MSTORE PUSH1 0x20 ADD SWAP1 DUP2 MSTORE PUSH1 0x20 ADD PUSH1 0x0 KECCAK256 PUSH1 0x0 PUSH2 0x100 EXP DUP2 SLOAD DUP2 PUSH1 0xFF MUL NOT AND SWAP1 DUP4 ISZERO ISZERO MUL OR SWAP1 SSTORE POP PUSH1 0x3 PUSH1 0x0 DUP2 SLOAD DUP1 SWAP3 SWAP2 SWAP1 PUSH2 0x98E SWAP1 PUSH2 0x150C JUMP JUMPDEST SWAP2 SWAP1 POP SSTORE POP POP JUMP JUMPDEST PUSH1 0x0 DUP2 GT PUSH2 0x9D9 JUMPI PUSH1 0x40 MLOAD PUSH32 0x8C379A000000000000000000000000000000000000000000000000000000000 DUP2 MSTORE PUSH1 0x4 ADD PUSH2 0x9D0 SWAP1 PUSH2 0x15A1 JUMP JUMPDEST PUSH1 0x40 MLOAD DUP1 SWAP2 SUB SWAP1 REVERT JUMPDEST PUSH1 0x2 PUSH1 0x0 CALLER PUSH20 0xFFFFFFFFFFFFFFFFFFFFFFFFFFFFFFFFFFFFFFFF AND PUSH20 0xFFFFFFFFFFFFFFFFFFFFFFFFFFFFFFFFFFFFFFFF AND DUP2 MSTORE PUSH1 0x20 ADD SWAP1 DUP2 MSTORE PUSH1 0x20 ADD PUSH1 0x0 KECCAK256 PUSH1 0x0 SWAP1 SLOAD SWAP1 PUSH2 0x100 EXP SWAP1 DIV PUSH1 0xFF AND PUSH2 0xA65 JUMPI PUSH1 0x40 MLOAD PUSH32 0x8C379A000000000000000000000000000000000000000000000000000000000 DUP2 MSTORE PUSH1 0x4 ADD PUSH2 0xA5C SWAP1 PUSH2 0x160D JUMP JUMPDEST PUSH1 0x40 MLOAD DUP1 SWAP2 SUB SWAP1 REVERT JUMPDEST PUSH1 0x0 PUSH1 0x4 PUSH1 0x1 PUSH1 0x4 DUP1 SLOAD SWAP1 POP PUSH2 0xA7B SWAP2 SWAP1 PUSH2 0x162D JUMP JUMPDEST DUP2 SLOAD DUP2 LT PUSH2 0xA8C JUMPI PUSH2 0xA8B PUSH2 0x117C JUMP JUMPDEST JUMPDEST SWAP1 PUSH1 0x0 MSTORE PUSH1 0x20 PUSH1 0x0 KECCAK256 SWAP1 PUSH1 0x3 MUL ADD SWAP1 POP DUP2 DUP2 PUSH1 0x0 ADD DUP2 SWAP1 SSTORE POP PUSH1 0x0 DUP2 PUSH1 0x1 ADD DUP2 SWAP1 SSTORE POP PUSH1 0x1 DUP2 PUSH1 0x2 ADD PUSH1 0x0 CALLER PUSH20 0xFFFFFFFFFFFFFFFFFFFFFFFFFFFFFFFFFFFFFFFF AND PUSH20 0xFFFFFFFFFFFFFFFFFFFFFFFFFFFFFFFFFFFFFFFF AND DUP2 MSTORE PUSH1 0x20 ADD SWAP1 DUP2 MSTORE PUSH1 0x20 ADD PUSH1 0x0 KECCAK256 PUSH1 0x0 PUSH2 0x100 EXP DUP2 SLOAD DUP2 PUSH1 0xFF MUL NOT AND SWAP1 DUP4 ISZERO ISZERO MUL OR SWAP1 SSTORE POP POP POP JUMP JUMPDEST PUSH1 0x0 DUP1 SLOAD SWAP1 PUSH2 0x100 EXP SWAP1 DIV PUSH20 0xFFFFFFFFFFFFFFFFFFFFFFFFFFFFFFFFFFFFFFFF AND DUP2 JUMP JUMPDEST PUSH1 0x4 DUP1 SLOAD SWAP1 POP DUP2 LT PUSH2 0xB78 JUMPI PUSH1 0x40 MLOAD PUSH32 0x8C379A000000000000000000000000000000000000000000000000000000000 DUP2 MSTORE PUSH1 0x4 ADD PUSH2 0xB6F SWAP1 PUSH2 0x115C JUMP JUMPDEST PUSH1 0x40 MLOAD DUP1 SWAP2 SUB SWAP1 REVERT JUMPDEST PUSH1 0x3 SLOAD PUSH1 0x4 DUP3 DUP2 SLOAD DUP2 LT PUSH2 0xB8F JUMPI PUSH2 0xB8E PUSH2 0x117C JUMP JUMPDEST JUMPDEST SWAP1 PUSH1 0x0 MSTORE PUSH1 0x20 PUSH1 0x0 KECCAK256 SWAP1 PUSH1 0x3 MUL ADD PUSH1 0x1 ADD SLOAD LT PUSH2 0xBE1 JUMPI PUSH1 0x40 MLOAD PUSH32 0x8C379A000000000000000000000000000000000000000000000000000000000 DUP2 MSTORE PUSH1 0x4 ADD PUSH2 0xBD8 SWAP1 PUSH2 0x16F5 JUMP JUMPDEST PUSH1 0x40 MLOAD DUP1 SWAP2 SUB SWAP1 REVERT JUMPDEST PUSH1 0x2 PUSH1 0x0 CALLER PUSH20 0xFFFFFFFFFFFFFFFFFFFFFFFFFFFFFFFFFFFFFFFF AND PUSH20 0xFFFFFFFFFFFFFFFFFFFFFFFFFFFFFFFFFFFFFFFF AND DUP2 MSTORE PUSH1 0x20 ADD SWAP1 DUP2 MSTORE PUSH1 0x20 ADD PUSH1 0x0 KECCAK256 PUSH1 0x0 SWAP1 SLOAD SWAP1 PUSH2 0x100 EXP SWAP1 DIV PUSH1 0xFF AND PUSH2 0xC6D JUMPI PUSH1 0x40 MLOAD PUSH32 0x8C379A000000000000000000000000000000000000000000000000000000000 DUP2 MSTORE PUSH1 0x4 ADD PUSH2 0xC64 SWAP1 PUSH2 0x1761 JUMP JUMPDEST PUSH1 0x40 MLOAD DUP1 SWAP2 SUB SWAP1 REVERT JUMPDEST PUSH1 0x0 ISZERO ISZERO PUSH1 0x4 DUP3 DUP2 SLOAD DUP2 LT PUSH2 0xC85 JUMPI PUSH2 0xC84 PUSH2 0x117C JUMP JUMPDEST JUMPDEST SWAP1 PUSH1 0x0 MSTORE PUSH1 0x20 PUSH1 0x0 KECCAK256 SWAP1 PUSH1 0x3 MUL ADD PUSH1 0x2 ADD PUSH1 0x0 CALLER PUSH20 0xFFFFFFFFFFFFFFFFFFFFFFFFFFFFFFFFFFFFFFFF AND PUSH20 0xFFFFFFFFFFFFFFFFFFFFFFFFFFFFFFFFFFFFFFFF AND DUP2 MSTORE PUSH1 0x20 ADD SWAP1 DUP2 MSTORE PUSH1 0x20 ADD PUSH1 0x0 KECCAK256 PUSH1 0x0 SWAP1 SLOAD SWAP1 PUSH2 0x100 EXP SWAP1 DIV PUSH1 0xFF AND ISZERO ISZERO EQ PUSH2 0xD23 JUMPI PUSH1 0x40 MLOAD PUSH32 0x8C379A000000000000000000000000000000000000000000000000000000000 DUP2 MSTORE PUSH1 0x4 ADD PUSH2 0xD1A SWAP1 PUSH2 0x17CD JUMP JUMPDEST PUSH1 0x40 MLOAD DUP1 SWAP2 SUB SWAP1 REVERT JUMPDEST PUSH1 0x4 DUP2 DUP2 SLOAD DUP2 LT PUSH2 0xD37 JUMPI PUSH2 0xD36 PUSH2 0x117C JUMP JUMPDEST JUMPDEST SWAP1 PUSH1 0x0 MSTORE PUSH1 0x20 PUSH1 0x0 KECCAK256 SWAP1 PUSH1 0x3 MUL ADD PUSH1 0x1 ADD PUSH1 0x0 DUP2 SLOAD DUP1 SWAP3 SWAP2 SWAP1 PUSH2 0xD59 SWAP1 PUSH2 0x150C JUMP JUMPDEST SWAP2 SWAP1 POP SSTORE POP PUSH1 0x1 PUSH1 0x4 DUP3 DUP2 SLOAD DUP2 LT PUSH2 0xD74 JUMPI PUSH2 0xD73 PUSH2 0x117C JUMP JUMPDEST JUMPDEST SWAP1 PUSH1 0x0 MSTORE PUSH1 0x20 PUSH1 0x0 KECCAK256 SWAP1 PUSH1 0x3 MUL ADD PUSH1 0x2 ADD PUSH1 0x0 CALLER PUSH20 0xFFFFFFFFFFFFFFFFFFFFFFFFFFFFFFFFFFFFFFFF AND PUSH20 0xFFFFFFFFFFFFFFFFFFFFFFFFFFFFFFFFFFFFFFFF AND DUP2 MSTORE PUSH1 0x20 ADD SWAP1 DUP2 MSTORE PUSH1 0x20 ADD PUSH1 0x0 KECCAK256 PUSH1 0x0 PUSH2 0x100 EXP DUP2 SLOAD DUP2 PUSH1 0xFF MUL NOT AND SWAP1 DUP4 ISZERO ISZERO MUL OR SWAP1 SSTORE POP POP JUMP JUMPDEST PUSH1 0x0 DUP1 SLOAD SWAP1 PUSH2 0x100 EXP SWAP1 DIV PUSH20 0xFFFFFFFFFFFFFFFFFFFFFFFFFFFFFFFFFFFFFFFF AND PUSH20 0xFFFFFFFFFFFFFFFFFFFFFFFFFFFFFFFFFFFFFFFF AND CALLER PUSH20 0xFFFFFFFFFFFFFFFFFFFFFFFFFFFFFFFFFFFFFFFF AND EQ PUSH2 0xE6A JUMPI PUSH1 0x40 MLOAD PUSH32 0x8C379A000000000000000000000000000000000000000000000000000000000 DUP2 MSTORE PUSH1 0x4 ADD PUSH2 0xE61 SWAP1 PUSH2 0x12F5 JUMP JUMPDEST PUSH1 0x40 MLOAD DUP1 SWAP2 SUB SWAP1 REVERT JUMPDEST PUSH1 0x0 DUP1 SLOAD SWAP1 PUSH2 0x100 EXP SWAP1 DIV PUSH20 0xFFFFFFFFFFFFFFFFFFFFFFFFFFFFFFFFFFFFFFFF AND PUSH20 0xFFFFFFFFFFFFFFFFFFFFFFFFFFFFFFFFFFFFFFFF AND DUP2 PUSH20 0xFFFFFFFFFFFFFFFFFFFFFFFFFFFFFFFFFFFFFFFF AND EQ ISZERO PUSH2 0xEF9 JUMPI PUSH1 0x40 MLOAD PUSH32 0x8C379A000000000000000000000000000000000000000000000000000000000 DUP2 MSTORE PUSH1 0x4 ADD PUSH2 0xEF0 SWAP1 PUSH2 0x185F JUMP JUMPDEST PUSH1 0x40 MLOAD DUP1 SWAP2 SUB SWAP1 REVERT JUMPDEST PUSH1 0x0 PUSH20 0xFFFFFFFFFFFFFFFFFFFFFFFFFFFFFFFFFFFFFFFF AND DUP2 PUSH20 0xFFFFFFFFFFFFFFFFFFFFFFFFFFFFFFFFFFFFFFFF AND EQ ISZERO PUSH2 0xF69 JUMPI PUSH1 0x40 MLOAD PUSH32 0x8C379A000000000000000000000000000000000000000000000000000000000 DUP2 MSTORE PUSH1 0x4 ADD PUSH2 0xF60 SWAP1 PUSH2 0x18F1 JUMP JUMPDEST PUSH1 0x40 MLOAD DUP1 SWAP2 SUB SWAP1 REVERT JUMPDEST DUP1 PUSH1 0x0 DUP1 PUSH2 0x100 EXP DUP2 SLOAD DUP2 PUSH20 0xFFFFFFFFFFFFFFFFFFFFFFFFFFFFFFFFFFFFFFFF MUL NOT AND SWAP1 DUP4 PUSH20 0xFFFFFFFFFFFFFFFFFFFFFFFFFFFFFFFFFFFFFFFF AND MUL OR SWAP1 SSTORE POP POP JUMP JUMPDEST PUSH1 0x0 DUP1 REVERT JUMPDEST PUSH1 0x0 DUP2 SWAP1 POP SWAP2 SWAP1 POP JUMP JUMPDEST PUSH2 0xFC4 DUP2 PUSH2 0xFB1 JUMP JUMPDEST DUP2 EQ PUSH2 0xFCF JUMPI PUSH1 0x0 DUP1 REVERT JUMPDEST POP JUMP JUMPDEST PUSH1 0x0 DUP2 CALLDATALOAD SWAP1 POP PUSH2 0xFE1 DUP2 PUSH2 0xFBB JUMP JUMPDEST SWAP3 SWAP2 POP POP JUMP JUMPDEST PUSH1 0x0 PUSH1 0x20 DUP3 DUP5 SUB SLT ISZERO PUSH2 0xFFD JUMPI PUSH2 0xFFC PUSH2 0xFAC JUMP JUMPDEST JUMPDEST PUSH1 0x0 PUSH2 0x100B DUP5 DUP3 DUP6 ADD PUSH2 0xFD2 JUMP JUMPDEST SWAP2 POP POP SWAP3 SWAP2 POP POP JUMP JUMPDEST PUSH1 0x0 PUSH20 0xFFFFFFFFFFFFFFFFFFFFFFFFFFFFFFFFFFFFFFFF DUP3 AND SWAP1 POP SWAP2 SWAP1 POP JUMP JUMPDEST PUSH1 0x0 PUSH2 0x103F DUP3 PUSH2 0x1014 JUMP JUMPDEST SWAP1 POP SWAP2 SWAP1 POP JUMP JUMPDEST PUSH2 0x104F DUP2 PUSH2 0x1034 JUMP JUMPDEST DUP3 MSTORE POP POP JUMP JUMPDEST PUSH1 0x0 PUSH1 0x20 DUP3 ADD SWAP1 POP PUSH2 0x106A PUSH1 0x0 DUP4 ADD DUP5 PUSH2 0x1046 JUMP JUMPDEST SWAP3 SWAP2 POP POP JUMP JUMPDEST PUSH2 0x1079 DUP2 PUSH2 0x1034 JUMP JUMPDEST DUP2 EQ PUSH2 0x1084 JUMPI PUSH1 0x0 DUP1 REVERT JUMPDEST POP JUMP JUMPDEST PUSH1 0x0 DUP2 CALLDATALOAD SWAP1 POP PUSH2 0x1096 DUP2 PUSH2 0x1070 JUMP JUMPDEST SWAP3 SWAP2 POP POP JUMP JUMPDEST PUSH1 0x0 PUSH1 0x20 DUP3 DUP5 SUB SLT ISZERO PUSH2 0x10B2 JUMPI PUSH2 0x10B1 PUSH2 0xFAC JUMP JUMPDEST JUMPDEST PUSH1 0x0 PUSH2 0x10C0 DUP5 DUP3 DUP6 ADD PUSH2 0x1087 JUMP JUMPDEST SWAP2 POP POP SWAP3 SWAP2 POP POP JUMP JUMPDEST PUSH1 0x0 DUP2 ISZERO ISZERO SWAP1 POP SWAP2 SWAP1 POP JUMP JUMPDEST PUSH2 0x10DE DUP2 PUSH2 0x10C9 JUMP JUMPDEST DUP3 MSTORE POP POP JUMP JUMPDEST PUSH1 0x0 PUSH1 0x20 DUP3 ADD SWAP1 POP PUSH2 0x10F9 PUSH1 0x0 DUP4 ADD DUP5 PUSH2 0x10D5 JUMP JUMPDEST SWAP3 SWAP2 POP POP JUMP JUMPDEST PUSH1 0x0 DUP3 DUP3 MSTORE PUSH1 0x20 DUP3 ADD SWAP1 POP SWAP3 SWAP2 POP POP JUMP JUMPDEST PUSH32 0x696E646578206F7574206F6620626F756E647300000000000000000000000000 PUSH1 0x0 DUP3 ADD MSTORE POP JUMP JUMPDEST PUSH1 0x0 PUSH2 0x1146 PUSH1 0x13 DUP4 PUSH2 0x10FF JUMP JUMPDEST SWAP2 POP PUSH2 0x1151 DUP3 PUSH2 0x1110 JUMP JUMPDEST PUSH1 0x20 DUP3 ADD SWAP1 POP SWAP2 SWAP1 POP JUMP JUMPDEST PUSH1 0x0 PUSH1 0x20 DUP3 ADD SWAP1 POP DUP2 DUP2 SUB PUSH1 0x0 DUP4 ADD MSTORE PUSH2 0x1175 DUP2 PUSH2 0x1139 JUMP JUMPDEST SWAP1 POP SWAP2 SWAP1 POP JUMP JUMPDEST PUSH32 0x4E487B7100000000000000000000000000000000000000000000000000000000 PUSH1 0x0 MSTORE PUSH1 0x32 PUSH1 0x4 MSTORE PUSH1 0x24 PUSH1 0x0 REVERT JUMPDEST PUSH32 0x6F6E6C7920617070726F766564206F776E6572732063616E2077697468647261 PUSH1 0x0 DUP3 ADD MSTORE PUSH32 0x7700000000000000000000000000000000000000000000000000000000000000 PUSH1 0x20 DUP3 ADD MSTORE POP JUMP JUMPDEST PUSH1 0x0 PUSH2 0x1207 PUSH1 0x21 DUP4 PUSH2 0x10FF JUMP JUMPDEST SWAP2 POP PUSH2 0x1212 DUP3 PUSH2 0x11AB JUMP JUMPDEST PUSH1 0x40 DUP3 ADD SWAP1 POP SWAP2 SWAP1 POP JUMP JUMPDEST PUSH1 0x0 PUSH1 0x20 DUP3 ADD SWAP1 POP DUP2 DUP2 SUB PUSH1 0x0 DUP4 ADD MSTORE PUSH2 0x1236 DUP2 PUSH2 0x11FA JUMP JUMPDEST SWAP1 POP SWAP2 SWAP1 POP JUMP JUMPDEST PUSH32 0x6E6F7420616C6C206F776E657273206861766520617070726F76656400000000 PUSH1 0x0 DUP3 ADD MSTORE POP JUMP JUMPDEST PUSH1 0x0 PUSH2 0x1273 PUSH1 0x1C DUP4 PUSH2 0x10FF JUMP JUMPDEST SWAP2 POP PUSH2 0x127E DUP3 PUSH2 0x123D JUMP JUMPDEST PUSH1 0x20 DUP3 ADD SWAP1 POP SWAP2 SWAP1 POP JUMP JUMPDEST PUSH1 0x0 PUSH1 0x20 DUP3 ADD SWAP1 POP DUP2 DUP2 SUB PUSH1 0x0 DUP4 ADD MSTORE PUSH2 0x12A2 DUP2 PUSH2 0x1266 JUMP JUMPDEST SWAP1 POP SWAP2 SWAP1 POP JUMP JUMPDEST PUSH32 0x6F6E6C79206F776E657200000000000000000000000000000000000000000000 PUSH1 0x0 DUP3 ADD MSTORE POP JUMP JUMPDEST PUSH1 0x0 PUSH2 0x12DF PUSH1 0xA DUP4 PUSH2 0x10FF JUMP JUMPDEST SWAP2 POP PUSH2 0x12EA DUP3 PUSH2 0x12A9 JUMP JUMPDEST PUSH1 0x20 DUP3 ADD SWAP1 POP SWAP2 SWAP1 POP JUMP JUMPDEST PUSH1 0x0 PUSH1 0x20 DUP3 ADD SWAP1 POP DUP2 DUP2 SUB PUSH1 0x0 DUP4 ADD MSTORE PUSH2 0x130E DUP2 PUSH2 0x12D2 JUMP JUMPDEST SWAP1 POP SWAP2 SWAP1 POP JUMP JUMPDEST PUSH32 0x4E487B7100000000000000000000000000000000000000000000000000000000 PUSH1 0x0 MSTORE PUSH1 0x11 PUSH1 0x4 MSTORE PUSH1 0x24 PUSH1 0x0 REVERT JUMPDEST PUSH1 0x0 PUSH2 0x134F DUP3 PUSH2 0xFB1 JUMP JUMPDEST SWAP2 POP PUSH2 0x135A DUP4 PUSH2 0xFB1 JUMP JUMPDEST SWAP3 POP DUP3 DUP3 LT ISZERO PUSH2 0x136D JUMPI PUSH2 0x136C PUSH2 0x1315 JUMP JUMPDEST JUMPDEST DUP3 DUP3 SUB SWAP1 POP SWAP3 SWAP2 POP POP JUMP JUMPDEST PUSH1 0x0 PUSH2 0x1383 DUP3 PUSH2 0xFB1 JUMP JUMPDEST SWAP2 POP PUSH1 0x0 DUP3 EQ ISZERO PUSH2 0x1397 JUMPI PUSH2 0x1396 PUSH2 0x1315 JUMP JUMPDEST JUMPDEST PUSH1 0x1 DUP3 SUB SWAP1 POP SWAP2 SWAP1 POP JUMP JUMPDEST PUSH32 0x63616E6E6F742061646420636F6E7472616374206F776E657220746F206C6973 PUSH1 0x0 DUP3 ADD MSTORE PUSH32 0x7400000000000000000000000000000000000000000000000000000000000000 PUSH1 0x20 DUP3 ADD MSTORE POP JUMP JUMPDEST PUSH1 0x0 PUSH2 0x13FE PUSH1 0x21 DUP4 PUSH2 0x10FF JUMP JUMPDEST SWAP2 POP PUSH2 0x1409 DUP3 PUSH2 0x13A2 JUMP JUMPDEST PUSH1 0x40 DUP3 ADD SWAP1 POP SWAP2 SWAP1 POP JUMP JUMPDEST PUSH1 0x0 PUSH1 0x20 DUP3 ADD SWAP1 POP DUP2 DUP2 SUB PUSH1 0x0 DUP4 ADD MSTORE PUSH2 0x142D DUP2 PUSH2 0x13F1 JUMP JUMPDEST SWAP1 POP SWAP2 SWAP1 POP JUMP JUMPDEST PUSH32 0x63616E6E6F7420616464206E756C6C206164647265737320746F206C69737400 PUSH1 0x0 DUP3 ADD MSTORE POP JUMP JUMPDEST PUSH1 0x0 PUSH2 0x146A PUSH1 0x1F DUP4 PUSH2 0x10FF JUMP JUMPDEST SWAP2 POP PUSH2 0x1475 DUP3 PUSH2 0x1434 JUMP JUMPDEST PUSH1 0x20 DUP3 ADD SWAP1 POP SWAP2 SWAP1 POP JUMP JUMPDEST PUSH1 0x0 PUSH1 0x20 DUP3 ADD SWAP1 POP DUP2 DUP2 SUB PUSH1 0x0 DUP4 ADD MSTORE PUSH2 0x1499 DUP2 PUSH2 0x145D JUMP JUMPDEST SWAP1 POP SWAP2 SWAP1 POP JUMP JUMPDEST PUSH32 0x6164647265737320616C72656164792065786973747320696E206C6973740000 PUSH1 0x0 DUP3 ADD MSTORE POP JUMP JUMPDEST PUSH1 0x0 PUSH2 0x14D6 PUSH1 0x1E DUP4 PUSH2 0x10FF JUMP JUMPDEST SWAP2 POP PUSH2 0x14E1 DUP3 PUSH2 0x14A0 JUMP JUMPDEST PUSH1 0x20 DUP3 ADD SWAP1 POP SWAP2 SWAP1 POP JUMP JUMPDEST PUSH1 0x0 PUSH1 0x20 DUP3 ADD SWAP1 POP DUP2 DUP2 SUB PUSH1 0x0 DUP4 ADD MSTORE PUSH2 0x1505 DUP2 PUSH2 0x14C9 JUMP JUMPDEST SWAP1 POP SWAP2 SWAP1 POP JUMP JUMPDEST PUSH1 0x0 PUSH2 0x1517 DUP3 PUSH2 0xFB1 JUMP JUMPDEST SWAP2 POP PUSH32 0xFFFFFFFFFFFFFFFFFFFFFFFFFFFFFFFFFFFFFFFFFFFFFFFFFFFFFFFFFFFFFFFF DUP3 EQ ISZERO PUSH2 0x154A JUMPI PUSH2 0x1549 PUSH2 0x1315 JUMP JUMPDEST JUMPDEST PUSH1 0x1 DUP3 ADD SWAP1 POP SWAP2 SWAP1 POP JUMP JUMPDEST PUSH32 0x616D6F756E74206D7573742062652067726561746572207468616E2030000000 PUSH1 0x0 DUP3 ADD MSTORE POP JUMP JUMPDEST PUSH1 0x0 PUSH2 0x158B PUSH1 0x1D DUP4 PUSH2 0x10FF JUMP JUMPDEST SWAP2 POP PUSH2 0x1596 DUP3 PUSH2 0x1555 JUMP JUMPDEST PUSH1 0x20 DUP3 ADD SWAP1 POP SWAP2 SWAP1 POP JUMP JUMPDEST PUSH1 0x0 PUSH1 0x20 DUP3 ADD SWAP1 POP DUP2 DUP2 SUB PUSH1 0x0 DUP4 ADD MSTORE PUSH2 0x15BA DUP2 PUSH2 0x157E JUMP JUMPDEST SWAP1 POP SWAP2 SWAP1 POP JUMP JUMPDEST PUSH32 0x6F6E6C79206F776E65722063616E207769746864726177000000000000000000 PUSH1 0x0 DUP3 ADD MSTORE POP JUMP JUMPDEST PUSH1 0x0 PUSH2 0x15F7 PUSH1 0x17 DUP4 PUSH2 0x10FF JUMP JUMPDEST SWAP2 POP PUSH2 0x1602 DUP3 PUSH2 0x15C1 JUMP JUMPDEST PUSH1 0x20 DUP3 ADD SWAP1 POP SWAP2 SWAP1 POP JUMP JUMPDEST PUSH1 0x0 PUSH1 0x20 DUP3 ADD SWAP1 POP DUP2 DUP2 SUB PUSH1 0x0 DUP4 ADD MSTORE PUSH2 0x1626 DUP2 PUSH2 0x15EA JUMP JUMPDEST SWAP1 POP SWAP2 SWAP1 POP JUMP JUMPDEST PUSH1 0x0 PUSH2 0x1638 DUP3 PUSH2 0xFB1 JUMP JUMPDEST SWAP2 POP PUSH2 0x1643 DUP4 PUSH2 0xFB1 JUMP JUMPDEST SWAP3 POP DUP3 PUSH32 0xFFFFFFFFFFFFFFFFFFFFFFFFFFFFFFFFFFFFFFFFFFFFFFFFFFFFFFFFFFFFFFFF SUB DUP3 GT ISZERO PUSH2 0x1678 JUMPI PUSH2 0x1677 PUSH2 0x1315 JUMP JUMPDEST JUMPDEST DUP3 DUP3 ADD SWAP1 POP SWAP3 SWAP2 POP POP JUMP JUMPDEST PUSH32 0x726571756573742068617320616C7265616479206265656E20617070726F7665 PUSH1 0x0 DUP3 ADD MSTORE PUSH32 0x6400000000000000000000000000000000000000000000000000000000000000 PUSH1 0x20 DUP3 ADD MSTORE POP JUMP JUMPDEST PUSH1 0x0 PUSH2 0x16DF PUSH1 0x21 DUP4 PUSH2 0x10FF JUMP JUMPDEST SWAP2 POP PUSH2 0x16EA DUP3 PUSH2 0x1683 JUMP JUMPDEST PUSH1 0x40 DUP3 ADD SWAP1 POP SWAP2 SWAP1 POP JUMP JUMPDEST PUSH1 0x0 PUSH1 0x20 DUP3 ADD SWAP1 POP DUP2 DUP2 SUB PUSH1 0x0 DUP4 ADD MSTORE PUSH2 0x170E DUP2 PUSH2 0x16D2 JUMP JUMPDEST SWAP1 POP SWAP2 SWAP1 POP JUMP JUMPDEST PUSH32 0x6F6E6C79206F776E65722063616E20617070726F766500000000000000000000 PUSH1 0x0 DUP3 ADD MSTORE POP JUMP JUMPDEST PUSH1 0x0 PUSH2 0x174B PUSH1 0x16 DUP4 PUSH2 0x10FF JUMP JUMPDEST SWAP2 POP PUSH2 0x1756 DUP3 PUSH2 0x1715 JUMP JUMPDEST PUSH1 0x20 DUP3 ADD SWAP1 POP SWAP2 SWAP1 POP JUMP JUMPDEST PUSH1 0x0 PUSH1 0x20 DUP3 ADD SWAP1 POP DUP2 DUP2 SUB PUSH1 0x0 DUP4 ADD MSTORE PUSH2 0x177A DUP2 PUSH2 0x173E JUMP JUMPDEST SWAP1 POP SWAP2 SWAP1 POP JUMP JUMPDEST PUSH32 0x616C726561647920617070726F76656400000000000000000000000000000000 PUSH1 0x0 DUP3 ADD MSTORE POP JUMP JUMPDEST PUSH1 0x0 PUSH2 0x17B7 PUSH1 0x10 DUP4 PUSH2 0x10FF JUMP JUMPDEST SWAP2 POP PUSH2 0x17C2 DUP3 PUSH2 0x1781 JUMP JUMPDEST PUSH1 0x20 DUP3 ADD SWAP1 POP SWAP2 SWAP1 POP JUMP JUMPDEST PUSH1 0x0 PUSH1 0x20 DUP3 ADD SWAP1 POP DUP2 DUP2 SUB PUSH1 0x0 DUP4 ADD MSTORE PUSH2 0x17E6 DUP2 PUSH2 0x17AA JUMP JUMPDEST SWAP1 POP SWAP2 SWAP1 POP JUMP JUMPDEST PUSH32 0x63616E6E6F74207472616E73666572206F776E65727368697020746F2073656C PUSH1 0x0 DUP3 ADD MSTORE PUSH32 0x6600000000000000000000000000000000000000000000000000000000000000 PUSH1 0x20 DUP3 ADD MSTORE POP JUMP JUMPDEST PUSH1 0x0 PUSH2 0x1849 PUSH1 0x21 DUP4 PUSH2 0x10FF JUMP JUMPDEST SWAP2 POP PUSH2 0x1854 DUP3 PUSH2 0x17ED JUMP JUMPDEST PUSH1 0x40 DUP3 ADD SWAP1 POP SWAP2 SWAP1 POP JUMP JUMPDEST PUSH1 0x0 PUSH1 0x20 DUP3 ADD SWAP1 POP DUP2 DUP2 SUB PUSH1 0x0 DUP4 ADD MSTORE PUSH2 0x1878 DUP2 PUSH2 0x183C JUMP JUMPDEST SWAP1 POP SWAP2 SWAP1 POP JUMP JUMPDEST PUSH32 0x63616E6E6F74207472616E73666572206F776E65727368697020746F206E756C PUSH1 0x0 DUP3 ADD MSTORE PUSH32 0x6C20616464726573730000000000000000000000000000000000000000000000 PUSH1 0x20 DUP3 ADD MSTORE POP JUMP JUMPDEST PUSH1 0x0 PUSH2 0x18DB PUSH1 0x29 DUP4 PUSH2 0x10FF JUMP JUMPDEST SWAP2 POP PUSH2 0x18E6 DUP3 PUSH2 0x187F JUMP JUMPDEST PUSH1 0x40 DUP3 ADD SWAP1 POP SWAP2 SWAP1 POP JUMP JUMPDEST PUSH1 0x0 PUSH1 0x20 DUP3 ADD SWAP1 POP DUP2 DUP2 SUB PUSH1 0x0 DUP4 ADD MSTORE PUSH2 0x190A DUP2 PUSH2 0x18CE JUMP JUMPDEST SWAP1 POP SWAP2 SWAP1 POP JUMP INVALID LOG2 PUSH5 0x6970667358 0x22 SLT KECCAK256 DIV SWAP9 0xED 0xF6 EXP SGT MULMOD 0x2D 0xE7 PUSH28 0xACDE0AA50D7BD17755C6BA734B026355D7D8A940D9F064736F6C6343 STOP ADDMOD EXP STOP CALLER "},"gasEstimates":{"creation":{"codeDepositCost":"1294200","executionCost":"25615","totalCost":"1319815"},"external":{"addOwner(address)":"104373","approve(uint256)":"infinite","isOwner(address)":"2890","owner()":"2555","owners(uint256)":"4957","removeOwner(uint256)":"infinite","transferOwnership(address)":"29186","withdraw(uint256)":"infinite","withdrawRequest(uint256)":"infinite"}},"methodIdentifiers":{"addOwner(address)":"7065cb48","approve(uint256)":"b759f954","isOwner(address)":"2f54bf6e","owner()":"8da5cb5b","owners(uint256)":"025e7c27","removeOwner(uint256)":"6b919488","transferOwnership(address)":"f2fde38b","withdraw(uint256)":"2e1a7d4d","withdrawRequest(uint256)":"74899a7e"}},"storageLayout":{"storage":[{"astId":3,"contract":"SharedWallet.sol:SharedWallet","label":"owner","offset":0,"slot":"0","type":"t_address"},{"astId":6,"contract":"SharedWallet.sol:SharedWallet","label":"owners","offset":0,"slot":"1","type":"t_array(t_address)dyn_storage"},{"astId":10,"contract":"SharedWallet.sol:SharedWallet","label":"isOwner","offset":0,"slot":"2","type":"t_mapping(t_address,t_bool)"},{"astId":12,"contract":"SharedWallet.sol:SharedWallet","label":"numberOfOwners","offset":0,"slot":"3","type":"t_uint256"},{"astId":25,"contract":"SharedWallet.sol:SharedWallet","label":"requests","offset":0,"slot":"4","type":"t_array(t_struct(Request)21_storage)dyn_storage"}],"types":{"t_address":{"encoding":"inplace","label":"address","numberOfBytes":"20"},"t_array(t_address)dyn_storage":{"base":"t_address","encoding":"dynamic_array","label":"address[]","numberOfBytes":"32"},"t_array(t_struct(Request)21_storage)dyn_storage":{"base":"t_struct(Request)21_storage","encoding":"dynamic_array","label":"struct SharedWallet.Request[]","numberOfBytes":"32"},"t_bool":{"encoding":"inplace","label":"bool","numberOfBytes":"1"},"t_mapping(t_address,t_bool)":{"encoding":"mapping","key":"t_address","label":"mapping(address => bool)","numberOfBytes":"32","value":"t_bool"},"t_struct(Request)21_storage":{"encoding":"inplace","label":"struct SharedWallet.Request","members":[{"astId":14,"contract":"SharedWallet.sol:SharedWallet","label":"amount","offset":0,"slot":"0","type":"t_uint256"},{"astId":16,"contract":"SharedWallet.sol:SharedWallet","label":"numberOfApprovals","offset":0,"slot":"1","type":"t_uint256"},{"astId":20,"contract":"SharedWallet.sol:SharedWallet","label":"approved","offset":0,"slot":"2","type":"t_mapping(t_address,t_bool)"}],"numberOfBytes":"96"},"t_uint256":{"encoding":"inplace","label":"uint256","numberOfBytes":"32"}}},"userdoc":{"kind":"user","methods":{},"version":1}}